{"abi":[{"type":"constructor","inputs":[{"name":"_paymentToken","type":"address","internalType":"address"},{"name":"_villaPricePerDay","type":"uint256","internalType":"uint256"},{"name":"initialOwner","type":"address","internalType":"address"}],"stateMutability":"nonpayable"},{"type":"function","name":"DOMAIN_SEPARATOR","inputs":[],"outputs":[{"name":"","type":"bytes32","internalType":"bytes32"}],"stateMutability":"view"},{"type":"function","name":"allowance","inputs":[{"name":"owner","type":"address","internalType":"address"},{"name":"spender","type":"address","internalType":"address"}],"outputs":[{"name":"","type":"uint256","internalType":"uint256"}],"stateMutability":"view"},{"type":"function","name":"approve","inputs":[{"name":"spender","type":"address","internalType":"address"},{"name":"value","type":"uint256","internalType":"uint256"}],"outputs":[{"name":"","type":"bool","internalType":"bool"}],"stateMutability":"nonpayable"},{"type":"function","name":"balanceOf","inputs":[{"name":"account","type":"address","internalType":"address"}],"outputs":[{"name":"","type":"uint256","internalType":"uint256"}],"stateMutability":"view"},{"type":"function","name":"burn","inputs":[{"name":"value","type":"uint256","internalType":"uint256"}],"outputs":[],"stateMutability":"nonpayable"},{"type":"function","name":"burnFrom","inputs":[{"name":"account","type":"address","internalType":"address"},{"name":"value","type":"uint256","internalType":"uint256"}],"outputs":[],"stateMutability":"nonpayable"},{"type":"function","name":"decimals","inputs":[],"outputs":[{"name":"","type":"uint8","internalType":"uint8"}],"stateMutability":"view"},{"type":"function","name":"eip712Domain","inputs":[],"outputs":[{"name":"fields","type":"bytes1","internalType":"bytes1"},{"name":"name","type":"string","internalType":"string"},{"name":"version","type":"string","internalType":"string"},{"name":"chainId","type":"uint256","internalType":"uint256"},{"name":"verifyingContract","type":"address","internalType":"address"},{"name":"salt","type":"bytes32","internalType":"bytes32"},{"name":"extensions","type":"uint256[]","internalType":"uint256[]"}],"stateMutability":"view"},{"type":"function","name":"getPingString","inputs":[],"outputs":[{"name":"","type":"string","internalType":"string"}],"stateMutability":"pure"},{"type":"function","name":"getStatus","inputs":[{"name":"renter","type":"address","internalType":"address"}],"outputs":[{"name":"","type":"address","internalType":"address"},{"name":"","type":"uint256","internalType":"uint256"},{"name":"","type":"uint256","internalType":"uint256"},{"name":"","type":"uint256","internalType":"uint256"}],"stateMutability":"view"},{"type":"function","name":"name","inputs":[],"outputs":[{"name":"","type":"string","internalType":"string"}],"stateMutability":"view"},{"type":"function","name":"nonces","inputs":[{"name":"owner","type":"address","internalType":"address"}],"outputs":[{"name":"","type":"uint256","internalType":"uint256"}],"stateMutability":"view"},{"type":"function","name":"owner","inputs":[],"outputs":[{"name":"","type":"address","internalType":"address"}],"stateMutability":"view"},{"type":"function","name":"paymentToken","inputs":[],"outputs":[{"name":"","type":"address","internalType":"address"}],"stateMutability":"view"},{"type":"function","name":"permit","inputs":[{"name":"owner","type":"address","internalType":"address"},{"name":"spender","type":"address","internalType":"address"},{"name":"value","type":"uint256","internalType":"uint256"},{"name":"deadline","type":"uint256","internalType":"uint256"},{"name":"v","type":"uint8","internalType":"uint8"},{"name":"r","type":"bytes32","internalType":"bytes32"},{"name":"s","type":"bytes32","internalType":"bytes32"}],"outputs":[],"stateMutability":"nonpayable"},{"type":"function","name":"renounceOwnership","inputs":[],"outputs":[],"stateMutability":"nonpayable"},{"type":"function","name":"rentVilla","inputs":[{"name":"rentalDays","type":"uint256","internalType":"uint256"}],"outputs":[],"stateMutability":"nonpayable"},{"type":"function","name":"rentals","inputs":[{"name":"","type":"address","internalType":"address"}],"outputs":[{"name":"daysRented","type":"uint256","internalType":"uint256"},{"name":"startTimestamp","type":"uint256","internalType":"uint256"},{"name":"endTimestamp","type":"uint256","internalType":"uint256"}],"stateMutability":"view"},{"type":"function","name":"setVillaPricePerDay","inputs":[{"name":"_villaPricePerDay","type":"uint256","internalType":"uint256"}],"outputs":[],"stateMutability":"nonpayable"},{"type":"function","name":"symbol","inputs":[],"outputs":[{"name":"","type":"string","internalType":"string"}],"stateMutability":"view"},{"type":"function","name":"totalSupply","inputs":[],"outputs":[{"name":"","type":"uint256","internalType":"uint256"}],"stateMutability":"view"},{"type":"function","name":"transfer","inputs":[{"name":"to","type":"address","internalType":"address"},{"name":"value","type":"uint256","internalType":"uint256"}],"outputs":[{"name":"","type":"bool","internalType":"bool"}],"stateMutability":"nonpayable"},{"type":"function","name":"transferFrom","inputs":[{"name":"from","type":"address","internalType":"address"},{"name":"to","type":"address","internalType":"address"},{"name":"value","type":"uint256","internalType":"uint256"}],"outputs":[{"name":"","type":"bool","internalType":"bool"}],"stateMutability":"nonpayable"},{"type":"function","name":"transferOwnership","inputs":[{"name":"newOwner","type":"address","internalType":"address"}],"outputs":[],"stateMutability":"nonpayable"},{"type":"function","name":"villaPricePerDay","inputs":[],"outputs":[{"name":"","type":"uint256","internalType":"uint256"}],"stateMutability":"view"},{"type":"function","name":"withdrawTokens","inputs":[{"name":"tokenAddress","type":"address","internalType":"address"}],"outputs":[],"stateMutability":"nonpayable"},{"type":"event","name":"Approval","inputs":[{"name":"owner","type":"address","indexed":true,"internalType":"address"},{"name":"spender","type":"address","indexed":true,"internalType":"address"},{"name":"value","type":"uint256","indexed":false,"internalType":"uint256"}],"anonymous":false},{"type":"event","name":"EIP712DomainChanged","inputs":[],"anonymous":false},{"type":"event","name":"OwnershipTransferred","inputs":[{"name":"previousOwner","type":"address","indexed":true,"internalType":"address"},{"name":"newOwner","type":"address","indexed":true,"internalType":"address"}],"anonymous":false},{"type":"event","name":"Rented","inputs":[{"name":"renter","type":"address","indexed":true,"internalType":"address"},{"name":"rentalDays","type":"uint256","indexed":false,"internalType":"uint256"},{"name":"startTimestamp","type":"uint256","indexed":false,"internalType":"uint256"},{"name":"endTimestamp","type":"uint256","indexed":false,"internalType":"uint256"}],"anonymous":false},{"type":"event","name":"Transfer","inputs":[{"name":"from","type":"address","indexed":true,"internalType":"address"},{"name":"to","type":"address","indexed":true,"internalType":"address"},{"name":"value","type":"uint256","indexed":false,"internalType":"uint256"}],"anonymous":false},{"type":"error","name":"ECDSAInvalidSignature","inputs":[]},{"type":"error","name":"ECDSAInvalidSignatureLength","inputs":[{"name":"length","type":"uint256","internalType":"uint256"}]},{"type":"error","name":"ECDSAInvalidSignatureS","inputs":[{"name":"s","type":"bytes32","internalType":"bytes32"}]},{"type":"error","name":"ERC20InsufficientAllowance","inputs":[{"name":"spender","type":"address","internalType":"address"},{"name":"allowance","type":"uint256","internalType":"uint256"},{"name":"needed","type":"uint256","internalType":"uint256"}]},{"type":"error","name":"ERC20InsufficientBalance","inputs":[{"name":"sender","type":"address","internalType":"address"},{"name":"balance","type":"uint256","internalType":"uint256"},{"name":"needed","type":"uint256","internalType":"uint256"}]},{"type":"error","name":"ERC20InvalidApprover","inputs":[{"name":"approver","type":"address","internalType":"address"}]},{"type":"error","name":"ERC20InvalidReceiver","inputs":[{"name":"receiver","type":"address","internalType":"address"}]},{"type":"error","name":"ERC20InvalidSender","inputs":[{"name":"sender","type":"address","internalType":"address"}]},{"type":"error","name":"ERC20InvalidSpender","inputs":[{"name":"spender","type":"address","internalType":"address"}]},{"type":"error","name":"ERC2612ExpiredSignature","inputs":[{"name":"deadline","type":"uint256","internalType":"uint256"}]},{"type":"error","name":"ERC2612InvalidSigner","inputs":[{"name":"signer","type":"address","internalType":"address"},{"name":"owner","type":"address","internalType":"address"}]},{"type":"error","name":"InvalidAccountNonce","inputs":[{"name":"account","type":"address","internalType":"address"},{"name":"currentNonce","type":"uint256","internalType":"uint256"}]},{"type":"error","name":"InvalidShortString","inputs":[]},{"type":"error","name":"OwnableInvalidOwner","inputs":[{"name":"owner","type":"address","internalType":"address"}]},{"type":"error","name":"OwnableUnauthorizedAccount","inputs":[{"name":"account","type":"address","internalType":"address"}]},{"type":"error","name":"StringTooLong","inputs":[{"name":"str","type":"string","internalType":"string"}]}],"bytecode":{"object":"0x61016060405234801561001157600080fd5b506040516121003803806121008339810160408190526100309161044d565b6040518060400160405280600a8152602001692b34b63630aa37b5b2b760b11b81525080604051806040016040528060018152602001603160f81b815250836040518060400160405280600a8152602001692b34b63630aa37b5b2b760b11b8152506040518060400160405280600381526020016215931560ea1b81525081600390816100bd9190610528565b5060046100ca8282610528565b5050506001600160a01b0381166100fc57604051631e4fbdf760e01b8152600060048201526024015b60405180910390fd5b6101058161020a565b5061011182600661025c565b6101205261012081600761025c565b61014052815160208084019190912060e052815190820120610100524660a0526101ad60e05161010051604080517f8b73c3c69bb8fe3d512ecc4cf759cc79239f7b179b0ffacaa9a75d522b39400f60208201529081019290925260608201524660808201523060a082015260009060c00160405160208183030381529060405280519060200120905090565b60805250503060c05250600980546001600160a01b0319166001600160a01b038516179055600a829055610202336101e3601290565b6101ee90600a6106e3565b6101fd906402540be4006106f9565b61028f565b505050610795565b600580546001600160a01b038381166001600160a01b0319831681179093556040519116919082907f8be0079c531659141344cd1fd0a4f28419497f9722a3daafe3b4186f6b6457e090600090a35050565b600060208351101561027857610271836102c9565b9050610289565b816102838482610528565b5060ff90505b92915050565b6001600160a01b0382166102b95760405163ec442f0560e01b8152600060048201526024016100f3565b6102c560008383610307565b5050565b600080829050601f815111156102f4578260405163305a27a960e01b81526004016100f39190610710565b80516102ff8261075e565b179392505050565b6001600160a01b0383166103325780600260008282546103279190610782565b909155506103a49050565b6001600160a01b038316600090815260208190526040902054818110156103855760405163391434e360e21b81526001600160a01b038516600482015260248101829052604481018390526064016100f3565b6001600160a01b03841660009081526020819052604090209082900390555b6001600160a01b0382166103c0576002805482900390556103df565b6001600160a01b03821660009081526020819052604090208054820190555b816001600160a01b0316836001600160a01b03167fddf252ad1be2c89b69c2b068fc378daa952ba7f163c4a11628f55a4df523b3ef8360405161042491815260200190565b60405180910390a3505050565b80516001600160a01b038116811461044857600080fd5b919050565b60008060006060848603121561046257600080fd5b61046b84610431565b92506020840151915061048060408501610431565b90509250925092565b634e487b7160e01b600052604160045260246000fd5b600181811c908216806104b357607f821691505b6020821081036104d357634e487b7160e01b600052602260045260246000fd5b50919050565b601f82111561052357806000526020600020601f840160051c810160208510156105005750805b601f840160051c820191505b81811015610520576000815560010161050c565b50505b505050565b81516001600160401b0381111561054157610541610489565b6105558161054f845461049f565b846104d9565b6020601f82116001811461058957600083156105715750848201515b600019600385901b1c1916600184901b178455610520565b600084815260208120601f198516915b828110156105b95787850151825560209485019460019092019101610599565b50848210156105d75786840151600019600387901b60f8161c191681555b50505050600190811b01905550565b634e487b7160e01b600052601160045260246000fd5b6001815b60018411156106375780850481111561061b5761061b6105e6565b600184161561062957908102905b60019390931c928002610600565b935093915050565b60008261064e57506001610289565b8161065b57506000610289565b8160018114610671576002811461067b57610697565b6001915050610289565b60ff84111561068c5761068c6105e6565b50506001821b610289565b5060208310610133831016604e8410600b84101617156106ba575081810a610289565b6106c760001984846105fc565b80600019048211156106db576106db6105e6565b029392505050565b60006106f260ff84168361063f565b9392505050565b8082028115828204841417610289576102896105e6565b602081526000825180602084015260005b8181101561073e5760208186018101516040868401015201610721565b506000604082850101526040601f19601f83011684010191505092915050565b805160208083015191908110156104d35760001960209190910360031b1b16919050565b80820180821115610289576102896105e6565b60805160a05160c05160e0516101005161012051610140516119116107ef6000396000610f8901526000610f5c01526000610e4f01526000610e2701526000610d8201526000610dac01526000610dd601526119116000f3fe608060405234801561001057600080fd5b506004361061018e5760003560e01c8063715018a6116100de57806395d89b4111610097578063b61c129b11610071578063b61c129b1461040e578063d505accf14610421578063dd62ed3e14610434578063f2fde38b1461046d57600080fd5b806395d89b41146103ea578063a9059cbb146103f2578063b5f741221461040557600080fd5b8063715018a61461036757806379cc67901461036f5780637a0c57cd146103825780637ecebe00146103ab57806384b0196e146103be5780638da5cb5b146103d957600080fd5b806330ccebb51161014b57806342966c681161012557806342966c68146102ce57806349df728c146102e15780636ba85eb4146102f457806370a082311461033e57600080fd5b806330ccebb514610239578063313ce567146102b75780633644e515146102c657600080fd5b806306fdde0314610193578063095ea7b3146101b157806314f6f65d146101d457806318160ddd146101e957806323b872dd146101fb5780633013ce291461020e575b600080fd5b61019b610480565b6040516101a891906114e9565b60405180910390f35b6101c46101bf36600461151f565b610512565b60405190151581526020016101a8565b6101e76101e2366004611549565b61052c565b005b6002545b6040519081526020016101a8565b6101c4610209366004611562565b610891565b600954610221906001600160a01b031681565b6040516001600160a01b0390911681526020016101a8565b61028d61024736600461159f565b6001600160a01b0381166000908152600b602090815260409182902082516060810184528154808252600183015493820184905260029092015493018390529293909190565b604080516001600160a01b03909516855260208501939093529183015260608201526080016101a8565b604051601281526020016101a8565b6101ed6108b5565b6101e76102dc366004611549565b6108c4565b6101e76102ef36600461159f565b6108d1565b61032361030236600461159f565b600b6020526000908152604090208054600182015460029092015490919083565b604080519384526020840192909252908201526060016101a8565b6101ed61034c36600461159f565b6001600160a01b031660009081526020819052604090205490565b6101e7610a25565b6101e761037d36600461151f565b610a39565b60408051808201909152600d81526c48656c6c6f2c20576f726c642160981b602082015261019b565b6101ed6103b936600461159f565b610a52565b6103c6610a70565b6040516101a897969594939291906115ba565b6005546001600160a01b0316610221565b61019b610ab6565b6101c461040036600461151f565b610ac5565b6101ed600a5481565b6101e761041c366004611549565b610ad3565b6101e761042f366004611652565b610ae0565b6101ed6104423660046116c5565b6001600160a01b03918216600090815260016020908152604080832093909416825291909152205490565b6101e761047b36600461159f565b610c1a565b60606003805461048f906116f8565b80601f01602080910402602001604051908101604052809291908181526020018280546104bb906116f8565b80156105085780601f106104dd57610100808354040283529160200191610508565b820191906000526020600020905b8154815290600101906020018083116104eb57829003601f168201915b5050505050905090565b600033610520818585610c55565b60019150505b92915050565b600081116105935760405162461bcd60e51b815260206004820152602960248201527f52656e74616c206475726174696f6e206d7573742062652067726561746572206044820152687468616e207a65726f60b81b60648201526084015b60405180910390fd5b60006103e86105a46012600a61182f565b6105af90600161183e565b6105b99190611855565b6009546040516370a0823160e01b815233600482015291925082916001600160a01b03909116906370a0823190602401602060405180830381865afa158015610606573d6000803e3d6000fd5b505050506040513d601f19601f8201168201806040525081019061062a9190611877565b101561066f5760405162461bcd60e51b8152602060048201526014602482015273125b9cdd59999a58da595b9d081c185e5b595b9d60621b604482015260640161058a565b600954604051636eb1769f60e11b815233600482015230602482015282916001600160a01b03169063dd62ed3e90604401602060405180830381865afa1580156106bd573d6000803e3d6000fd5b505050506040513d601f19601f820116820180604052508101906106e19190611877565b10156107235760405162461bcd60e51b8152602060048201526011602482015270105b1b1bddd85b98d9481b9bdd081cd95d607a1b604482015260640161058a565b6009546001600160a01b03166323b872dd336107476005546001600160a01b031690565b6040516001600160e01b031960e085901b1681526001600160a01b03928316600482015291166024820152604481018490526064016020604051808303816000875af115801561079b573d6000803e3d6000fd5b505050506040513d601f19601f820116820180604052508101906107bf9190611890565b506107f36107d56005546001600160a01b031690565b6107e16012600a61182f565b6107ee906298968061183e565b610c62565b426000610803846201518061183e565b61080d90836118b2565b60408051606080820183528782526020808301878152838501868152336000818152600b85528790209551865591516001860155516002909401939093558351898152908101879052928301849052929350917f658611382a0e288ddf213e18d6e1825939c20da2d9e71ca336564709e1ad0f16910160405180910390a250505050565b60003361089f858285610c98565b6108aa858585610d16565b506001949350505050565b60006108bf610d75565b905090565b6108ce3382610ea0565b50565b6108d9610ed6565b6040516370a0823160e01b81523060048201526000906001600160a01b038316906370a0823190602401602060405180830381865afa158015610920573d6000803e3d6000fd5b505050506040513d601f19601f820116820180604052508101906109449190611877565b90506000811161098e5760405162461bcd60e51b81526020600482015260156024820152744e6f20746f6b656e7320746f20776974686472617760581b604482015260640161058a565b816001600160a01b031663a9059cbb6109af6005546001600160a01b031690565b6040516001600160e01b031960e084901b1681526001600160a01b039091166004820152602481018490526044016020604051808303816000875af11580156109fc573d6000803e3d6000fd5b505050506040513d601f19601f82011682018060405250810190610a209190611890565b505050565b610a2d610ed6565b610a376000610f03565b565b610a44823383610c98565b610a4e8282610ea0565b5050565b6001600160a01b038116600090815260086020526040812054610526565b600060608060008060006060610a84610f55565b610a8c610f82565b60408051600080825260208201909252600f60f81b9b939a50919850469750309650945092509050565b60606004805461048f906116f8565b600033610520818585610d16565b610adb610ed6565b600a55565b83421115610b045760405163313c898160e11b81526004810185905260240161058a565b60007f6e71edae12b1b97f4d1f60370fef10105fa2faae0126114a169c64845d6126c9888888610b518c6001600160a01b0316600090815260086020526040902080546001810190915590565b6040805160208101969096526001600160a01b0394851690860152929091166060840152608083015260a082015260c0810186905260e0016040516020818303038152906040528051906020012090506000610bac82610faf565b90506000610bbc82878787610fdc565b9050896001600160a01b0316816001600160a01b031614610c03576040516325c0072360e11b81526001600160a01b0380831660048301528b16602482015260440161058a565b610c0e8a8a8a610c55565b50505050505050505050565b610c22610ed6565b6001600160a01b038116610c4c57604051631e4fbdf760e01b81526000600482015260240161058a565b6108ce81610f03565b610a20838383600161100a565b6001600160a01b038216610c8c5760405163ec442f0560e01b81526000600482015260240161058a565b610a4e600083836110df565b6001600160a01b038381166000908152600160209081526040808320938616835292905220546000198114610d105781811015610d0157604051637dc7a0d960e11b81526001600160a01b0384166004820152602481018290526044810183905260640161058a565b610d108484848403600061100a565b50505050565b6001600160a01b038316610d4057604051634b637e8f60e11b81526000600482015260240161058a565b6001600160a01b038216610d6a5760405163ec442f0560e01b81526000600482015260240161058a565b610a208383836110df565b6000306001600160a01b037f000000000000000000000000000000000000000000000000000000000000000016148015610dce57507f000000000000000000000000000000000000000000000000000000000000000046145b15610df857507f000000000000000000000000000000000000000000000000000000000000000090565b6108bf604080517f8b73c3c69bb8fe3d512ecc4cf759cc79239f7b179b0ffacaa9a75d522b39400f60208201527f0000000000000000000000000000000000000000000000000000000000000000918101919091527f000000000000000000000000000000000000000000000000000000000000000060608201524660808201523060a082015260009060c00160405160208183030381529060405280519060200120905090565b6001600160a01b038216610eca57604051634b637e8f60e11b81526000600482015260240161058a565b610a4e826000836110df565b6005546001600160a01b03163314610a375760405163118cdaa760e01b815233600482015260240161058a565b600580546001600160a01b038381166001600160a01b0319831681179093556040519116919082907f8be0079c531659141344cd1fd0a4f28419497f9722a3daafe3b4186f6b6457e090600090a35050565b60606108bf7f00000000000000000000000000000000000000000000000000000000000000006006611209565b60606108bf7f00000000000000000000000000000000000000000000000000000000000000006007611209565b6000610526610fbc610d75565b8360405161190160f01b8152600281019290925260228201526042902090565b600080600080610fee888888886112b4565b925092509250610ffe8282611383565b50909695505050505050565b6001600160a01b0384166110345760405163e602df0560e01b81526000600482015260240161058a565b6001600160a01b03831661105e57604051634a1406b160e11b81526000600482015260240161058a565b6001600160a01b0380851660009081526001602090815260408083209387168352929052208290558015610d1057826001600160a01b0316846001600160a01b03167f8c5be1e5ebec7d5bd14f71427d1e84f3dd0314c0f7b2291e5b200ac8c7c3b925846040516110d191815260200190565b60405180910390a350505050565b6001600160a01b03831661110a5780600260008282546110ff91906118b2565b9091555061117c9050565b6001600160a01b0383166000908152602081905260409020548181101561115d5760405163391434e360e21b81526001600160a01b0385166004820152602481018290526044810183905260640161058a565b6001600160a01b03841660009081526020819052604090209082900390555b6001600160a01b038216611198576002805482900390556111b7565b6001600160a01b03821660009081526020819052604090208054820190555b816001600160a01b0316836001600160a01b03167fddf252ad1be2c89b69c2b068fc378daa952ba7f163c4a11628f55a4df523b3ef836040516111fc91815260200190565b60405180910390a3505050565b606060ff83146112235761121c8361143c565b9050610526565b81805461122f906116f8565b80601f016020809104026020016040519081016040528092919081815260200182805461125b906116f8565b80156112a85780601f1061127d576101008083540402835291602001916112a8565b820191906000526020600020905b81548152906001019060200180831161128b57829003601f168201915b50505050509050610526565b600080807f7fffffffffffffffffffffffffffffff5d576e7357a4501ddfe92f46681b20a08411156112ef5750600091506003905082611379565b604080516000808252602082018084528a905260ff891692820192909252606081018790526080810186905260019060a0016020604051602081039080840390855afa158015611343573d6000803e3d6000fd5b5050604051601f1901519150506001600160a01b03811661136f57506000925060019150829050611379565b9250600091508190505b9450945094915050565b6000826003811115611397576113976118c5565b036113a0575050565b60018260038111156113b4576113b46118c5565b036113d25760405163f645eedf60e01b815260040160405180910390fd5b60028260038111156113e6576113e66118c5565b036114075760405163fce698f760e01b81526004810182905260240161058a565b600382600381111561141b5761141b6118c5565b03610a4e576040516335e2f38360e21b81526004810182905260240161058a565b606060006114498361147b565b604080516020808252818301909252919250600091906020820181803683375050509182525060208101929092525090565b600060ff8216601f81111561052657604051632cd44ac360e21b815260040160405180910390fd5b6000815180845260005b818110156114c9576020818501810151868301820152016114ad565b506000602082860101526020601f19601f83011685010191505092915050565b6020815260006114fc60208301846114a3565b9392505050565b80356001600160a01b038116811461151a57600080fd5b919050565b6000806040838503121561153257600080fd5b61153b83611503565b946020939093013593505050565b60006020828403121561155b57600080fd5b5035919050565b60008060006060848603121561157757600080fd5b61158084611503565b925061158e60208501611503565b929592945050506040919091013590565b6000602082840312156115b157600080fd5b6114fc82611503565b60ff60f81b8816815260e0602082015260006115d960e08301896114a3565b82810360408401526115eb81896114a3565b606084018890526001600160a01b038716608085015260a0840186905283810360c08501528451808252602080870193509091019060005b81811015611641578351835260209384019390920191600101611623565b50909b9a5050505050505050505050565b600080600080600080600060e0888a03121561166d57600080fd5b61167688611503565b965061168460208901611503565b95506040880135945060608801359350608088013560ff811681146116a857600080fd5b9699959850939692959460a0840135945060c09093013592915050565b600080604083850312156116d857600080fd5b6116e183611503565b91506116ef60208401611503565b90509250929050565b600181811c9082168061170c57607f821691505b60208210810361172c57634e487b7160e01b600052602260045260246000fd5b50919050565b634e487b7160e01b600052601160045260246000fd5b6001815b60018411156117835780850481111561176757611767611732565b600184161561177557908102905b60019390931c92800261174c565b935093915050565b60008261179a57506001610526565b816117a757506000610526565b81600181146117bd57600281146117c7576117e3565b6001915050610526565b60ff8411156117d8576117d8611732565b50506001821b610526565b5060208310610133831016604e8410600b8410161715611806575081810a610526565b6118136000198484611748565b806000190482111561182757611827611732565b029392505050565b60006114fc60ff84168361178b565b808202811582820484141761052657610526611732565b60008261187257634e487b7160e01b600052601260045260246000fd5b500490565b60006020828403121561188957600080fd5b5051919050565b6000602082840312156118a257600080fd5b815180151581146114fc57600080fd5b8082018082111561052657610526611732565b634e487b7160e01b600052602160045260246000fdfea2646970667358221220a3275d63af1967009c0882f578cffea210245e3d4d63da444dd4ab90f050d80064736f6c634300081a0033","linkReferences":{}},"methodIdentifiers":{"DOMAIN_SEPARATOR()":"3644e515","allowance(address,address)":"dd62ed3e","approve(address,uint256)":"095ea7b3","balanceOf(address)":"70a08231","burn(uint256)":"42966c68","burnFrom(address,uint256)":"79cc6790","decimals()":"313ce567","eip712Domain()":"84b0196e","getPingString()":"7a0c57cd","getStatus(address)":"30ccebb5","name()":"06fdde03","nonces(address)":"7ecebe00","owner()":"8da5cb5b","paymentToken()":"3013ce29","permit(address,address,uint256,uint256,uint8,bytes32,bytes32)":"d505accf","renounceOwnership()":"715018a6","rentVilla(uint256)":"14f6f65d","rentals(address)":"6ba85eb4","setVillaPricePerDay(uint256)":"b61c129b","symbol()":"95d89b41","totalSupply()":"18160ddd","transfer(address,uint256)":"a9059cbb","transferFrom(address,address,uint256)":"23b872dd","transferOwnership(address)":"f2fde38b","villaPricePerDay()":"b5f74122","withdrawTokens(address)":"49df728c"},"id":44}