{"abi":[{"type":"constructor","inputs":[{"name":"_villaPricePerDay","type":"uint256","internalType":"uint256"},{"name":"initialOwner","type":"address","internalType":"address"}],"stateMutability":"nonpayable"},{"type":"function","name":"DOMAIN_SEPARATOR","inputs":[],"outputs":[{"name":"","type":"bytes32","internalType":"bytes32"}],"stateMutability":"view"},{"type":"function","name":"allowance","inputs":[{"name":"owner","type":"address","internalType":"address"},{"name":"spender","type":"address","internalType":"address"}],"outputs":[{"name":"","type":"uint256","internalType":"uint256"}],"stateMutability":"view"},{"type":"function","name":"approve","inputs":[{"name":"spender","type":"address","internalType":"address"},{"name":"value","type":"uint256","internalType":"uint256"}],"outputs":[{"name":"","type":"bool","internalType":"bool"}],"stateMutability":"nonpayable"},{"type":"function","name":"balanceOf","inputs":[{"name":"account","type":"address","internalType":"address"}],"outputs":[{"name":"","type":"uint256","internalType":"uint256"}],"stateMutability":"view"},{"type":"function","name":"burn","inputs":[{"name":"value","type":"uint256","internalType":"uint256"}],"outputs":[],"stateMutability":"nonpayable"},{"type":"function","name":"burnFrom","inputs":[{"name":"account","type":"address","internalType":"address"},{"name":"value","type":"uint256","internalType":"uint256"}],"outputs":[],"stateMutability":"nonpayable"},{"type":"function","name":"decimals","inputs":[],"outputs":[{"name":"","type":"uint8","internalType":"uint8"}],"stateMutability":"view"},{"type":"function","name":"eip712Domain","inputs":[],"outputs":[{"name":"fields","type":"bytes1","internalType":"bytes1"},{"name":"name","type":"string","internalType":"string"},{"name":"version","type":"string","internalType":"string"},{"name":"chainId","type":"uint256","internalType":"uint256"},{"name":"verifyingContract","type":"address","internalType":"address"},{"name":"salt","type":"bytes32","internalType":"bytes32"},{"name":"extensions","type":"uint256[]","internalType":"uint256[]"}],"stateMutability":"view"},{"type":"function","name":"getStatus","inputs":[{"name":"renter","type":"address","internalType":"address"}],"outputs":[{"name":"","type":"address","internalType":"address"},{"name":"","type":"uint256","internalType":"uint256"},{"name":"","type":"uint256","internalType":"uint256"},{"name":"","type":"uint256","internalType":"uint256"}],"stateMutability":"view"},{"type":"function","name":"name","inputs":[],"outputs":[{"name":"","type":"string","internalType":"string"}],"stateMutability":"view"},{"type":"function","name":"nonces","inputs":[{"name":"owner","type":"address","internalType":"address"}],"outputs":[{"name":"","type":"uint256","internalType":"uint256"}],"stateMutability":"view"},{"type":"function","name":"owner","inputs":[],"outputs":[{"name":"","type":"address","internalType":"address"}],"stateMutability":"view"},{"type":"function","name":"permit","inputs":[{"name":"owner","type":"address","internalType":"address"},{"name":"spender","type":"address","internalType":"address"},{"name":"value","type":"uint256","internalType":"uint256"},{"name":"deadline","type":"uint256","internalType":"uint256"},{"name":"v","type":"uint8","internalType":"uint8"},{"name":"r","type":"bytes32","internalType":"bytes32"},{"name":"s","type":"bytes32","internalType":"bytes32"}],"outputs":[],"stateMutability":"nonpayable"},{"type":"function","name":"renounceOwnership","inputs":[],"outputs":[],"stateMutability":"nonpayable"},{"type":"function","name":"rentVilla","inputs":[{"name":"rentalDays","type":"uint256","internalType":"uint256"}],"outputs":[],"stateMutability":"payable"},{"type":"function","name":"rentals","inputs":[{"name":"","type":"address","internalType":"address"}],"outputs":[{"name":"daysRented","type":"uint256","internalType":"uint256"},{"name":"startTimestamp","type":"uint256","internalType":"uint256"},{"name":"endTimestamp","type":"uint256","internalType":"uint256"}],"stateMutability":"view"},{"type":"function","name":"setVillaPricePerDay","inputs":[{"name":"_villaPricePerDay","type":"uint256","internalType":"uint256"}],"outputs":[],"stateMutability":"nonpayable"},{"type":"function","name":"symbol","inputs":[],"outputs":[{"name":"","type":"string","internalType":"string"}],"stateMutability":"view"},{"type":"function","name":"totalSupply","inputs":[],"outputs":[{"name":"","type":"uint256","internalType":"uint256"}],"stateMutability":"view"},{"type":"function","name":"transfer","inputs":[{"name":"to","type":"address","internalType":"address"},{"name":"value","type":"uint256","internalType":"uint256"}],"outputs":[{"name":"","type":"bool","internalType":"bool"}],"stateMutability":"nonpayable"},{"type":"function","name":"transferFrom","inputs":[{"name":"from","type":"address","internalType":"address"},{"name":"to","type":"address","internalType":"address"},{"name":"value","type":"uint256","internalType":"uint256"}],"outputs":[{"name":"","type":"bool","internalType":"bool"}],"stateMutability":"nonpayable"},{"type":"function","name":"transferOwnership","inputs":[{"name":"newOwner","type":"address","internalType":"address"}],"outputs":[],"stateMutability":"nonpayable"},{"type":"function","name":"villaPricePerDay","inputs":[],"outputs":[{"name":"","type":"uint256","internalType":"uint256"}],"stateMutability":"view"},{"type":"function","name":"withdrawETH","inputs":[],"outputs":[],"stateMutability":"nonpayable"},{"type":"event","name":"Approval","inputs":[{"name":"owner","type":"address","indexed":true,"internalType":"address"},{"name":"spender","type":"address","indexed":true,"internalType":"address"},{"name":"value","type":"uint256","indexed":false,"internalType":"uint256"}],"anonymous":false},{"type":"event","name":"EIP712DomainChanged","inputs":[],"anonymous":false},{"type":"event","name":"OwnershipTransferred","inputs":[{"name":"previousOwner","type":"address","indexed":true,"internalType":"address"},{"name":"newOwner","type":"address","indexed":true,"internalType":"address"}],"anonymous":false},{"type":"event","name":"Rented","inputs":[{"name":"renter","type":"address","indexed":true,"internalType":"address"},{"name":"rentalDays","type":"uint256","indexed":false,"internalType":"uint256"},{"name":"startTimestamp","type":"uint256","indexed":false,"internalType":"uint256"},{"name":"endTimestamp","type":"uint256","indexed":false,"internalType":"uint256"}],"anonymous":false},{"type":"event","name":"Transfer","inputs":[{"name":"from","type":"address","indexed":true,"internalType":"address"},{"name":"to","type":"address","indexed":true,"internalType":"address"},{"name":"value","type":"uint256","indexed":false,"internalType":"uint256"}],"anonymous":false},{"type":"error","name":"ECDSAInvalidSignature","inputs":[]},{"type":"error","name":"ECDSAInvalidSignatureLength","inputs":[{"name":"length","type":"uint256","internalType":"uint256"}]},{"type":"error","name":"ECDSAInvalidSignatureS","inputs":[{"name":"s","type":"bytes32","internalType":"bytes32"}]},{"type":"error","name":"ERC20InsufficientAllowance","inputs":[{"name":"spender","type":"address","internalType":"address"},{"name":"allowance","type":"uint256","internalType":"uint256"},{"name":"needed","type":"uint256","internalType":"uint256"}]},{"type":"error","name":"ERC20InsufficientBalance","inputs":[{"name":"sender","type":"address","internalType":"address"},{"name":"balance","type":"uint256","internalType":"uint256"},{"name":"needed","type":"uint256","internalType":"uint256"}]},{"type":"error","name":"ERC20InvalidApprover","inputs":[{"name":"approver","type":"address","internalType":"address"}]},{"type":"error","name":"ERC20InvalidReceiver","inputs":[{"name":"receiver","type":"address","internalType":"address"}]},{"type":"error","name":"ERC20InvalidSender","inputs":[{"name":"sender","type":"address","internalType":"address"}]},{"type":"error","name":"ERC20InvalidSpender","inputs":[{"name":"spender","type":"address","internalType":"address"}]},{"type":"error","name":"ERC2612ExpiredSignature","inputs":[{"name":"deadline","type":"uint256","internalType":"uint256"}]},{"type":"error","name":"ERC2612InvalidSigner","inputs":[{"name":"signer","type":"address","internalType":"address"},{"name":"owner","type":"address","internalType":"address"}]},{"type":"error","name":"InvalidAccountNonce","inputs":[{"name":"account","type":"address","internalType":"address"},{"name":"currentNonce","type":"uint256","internalType":"uint256"}]},{"type":"error","name":"InvalidShortString","inputs":[]},{"type":"error","name":"OwnableInvalidOwner","inputs":[{"name":"owner","type":"address","internalType":"address"}]},{"type":"error","name":"OwnableUnauthorizedAccount","inputs":[{"name":"account","type":"address","internalType":"address"}]},{"type":"error","name":"StringTooLong","inputs":[{"name":"str","type":"string","internalType":"string"}]}],"bytecode":{"object":"0x61016060405234801561001157600080fd5b50604051611e6a380380611e6a8339810160408190526100309161040e565b6040518060400160405280600a8152602001692b34b63630aa37b5b2b760b11b81525080604051806040016040528060018152602001603160f81b815250836040518060400160405280600a8152602001692b34b63630aa37b5b2b760b11b8152506040518060400160405280600381526020016215931560ea1b81525081600390816100bd91906104ea565b5060046100ca82826104ea565b5050506001600160a01b0381166100fc57604051631e4fbdf760e01b8152600060048201526024015b60405180910390fd5b610105816101e7565b50610111826006610239565b61012052610120816007610239565b61014052815160208084019190912060e052815190820120610100524660a0526101ad60e05161010051604080517f8b73c3c69bb8fe3d512ecc4cf759cc79239f7b179b0ffacaa9a75d522b39400f60208201529081019290925260608201524660808201523060a082015260009060c00160405160208183030381529060405280519060200120905090565b60805250503060c0525060098290556101e0336101cc6012600a6106a5565b6101db906402540be4006106bb565b61026c565b5050610757565b600580546001600160a01b038381166001600160a01b0319831681179093556040519116919082907f8be0079c531659141344cd1fd0a4f28419497f9722a3daafe3b4186f6b6457e090600090a35050565b60006020835110156102555761024e836102a6565b9050610266565b8161026084826104ea565b5060ff90505b92915050565b6001600160a01b0382166102965760405163ec442f0560e01b8152600060048201526024016100f3565b6102a2600083836102e4565b5050565b600080829050601f815111156102d1578260405163305a27a960e01b81526004016100f391906106d2565b80516102dc82610720565b179392505050565b6001600160a01b03831661030f5780600260008282546103049190610744565b909155506103819050565b6001600160a01b038316600090815260208190526040902054818110156103625760405163391434e360e21b81526001600160a01b038516600482015260248101829052604481018390526064016100f3565b6001600160a01b03841660009081526020819052604090209082900390555b6001600160a01b03821661039d576002805482900390556103bc565b6001600160a01b03821660009081526020819052604090208054820190555b816001600160a01b0316836001600160a01b03167fddf252ad1be2c89b69c2b068fc378daa952ba7f163c4a11628f55a4df523b3ef8360405161040191815260200190565b60405180910390a3505050565b6000806040838503121561042157600080fd5b825160208401519092506001600160a01b038116811461044057600080fd5b809150509250929050565b634e487b7160e01b600052604160045260246000fd5b600181811c9082168061047557607f821691505b60208210810361049557634e487b7160e01b600052602260045260246000fd5b50919050565b601f8211156104e557806000526020600020601f840160051c810160208510156104c25750805b601f840160051c820191505b818110156104e257600081556001016104ce565b50505b505050565b81516001600160401b038111156105035761050361044b565b610517816105118454610461565b8461049b565b6020601f82116001811461054b57600083156105335750848201515b600019600385901b1c1916600184901b1784556104e2565b600084815260208120601f198516915b8281101561057b578785015182556020948501946001909201910161055b565b50848210156105995786840151600019600387901b60f8161c191681555b50505050600190811b01905550565b634e487b7160e01b600052601160045260246000fd5b6001815b60018411156105f9578085048111156105dd576105dd6105a8565b60018416156105eb57908102905b60019390931c9280026105c2565b935093915050565b60008261061057506001610266565b8161061d57506000610266565b8160018114610633576002811461063d57610659565b6001915050610266565b60ff84111561064e5761064e6105a8565b50506001821b610266565b5060208310610133831016604e8410600b841016171561067c575081810a610266565b61068960001984846105be565b806000190482111561069d5761069d6105a8565b029392505050565b60006106b460ff841683610601565b9392505050565b8082028115828204841417610266576102666105a8565b602081526000825180602084015260005b8181101561070057602081860181015160408684010152016106e3565b506000604082850101526040601f19601f83011684010191505092915050565b805160208083015191908110156104955760001960209190910360031b1b16919050565b80820180821115610266576102666105a8565b60805160a05160c05160e0516101005161012051610140516116b96107b16000396000610d7b01526000610d4e01526000610c4101526000610c1901526000610b7401526000610b9e01526000610bc801526116b96000f3fe60806040526004361061014b5760003560e01c806379cc6790116100b6578063b5f741221161006f578063b5f7412214610442578063b61c129b14610458578063d505accf14610478578063dd62ed3e14610498578063e086e5ec146104de578063f2fde38b146104f357600080fd5b806379cc67901461037d5780637ecebe001461039d57806384b0196e146103bd5780638da5cb5b146103e557806395d89b411461040d578063a9059cbb1461042257600080fd5b8063313ce56711610108578063313ce5671461028a5780633644e515146102a657806342966c68146102bb5780636ba85eb4146102db57806370a0823114610332578063715018a61461036857600080fd5b806306fdde0314610150578063095ea7b31461017b57806314f6f65d146101ab57806318160ddd146101c057806323b872dd146101df57806330ccebb5146101ff575b600080fd5b34801561015c57600080fd5b50610165610513565b60405161017291906112db565b60405180910390f35b34801561018757600080fd5b5061019b610196366004611311565b6105a5565b6040519015158152602001610172565b6101be6101b936600461133b565b6105bf565b005b3480156101cc57600080fd5b506002545b604051908152602001610172565b3480156101eb57600080fd5b5061019b6101fa366004611354565b610791565b34801561020b57600080fd5b5061026061021a366004611391565b6001600160a01b0381166000908152600a602090815260409182902082516060810184528154808252600183015493820184905260029092015493018390529293909190565b604080516001600160a01b0390951685526020850193909352918301526060820152608001610172565b34801561029657600080fd5b5060405160128152602001610172565b3480156102b257600080fd5b506101d16107b5565b3480156102c757600080fd5b506101be6102d636600461133b565b6107c4565b3480156102e757600080fd5b506103176102f6366004611391565b600a6020526000908152604090208054600182015460029092015490919083565b60408051938452602084019290925290820152606001610172565b34801561033e57600080fd5b506101d161034d366004611391565b6001600160a01b031660009081526020819052604090205490565b34801561037457600080fd5b506101be6107d1565b34801561038957600080fd5b506101be610398366004611311565b6107e5565b3480156103a957600080fd5b506101d16103b8366004611391565b6107fe565b3480156103c957600080fd5b506103d261081c565b60405161017297969594939291906113ac565b3480156103f157600080fd5b506005546040516001600160a01b039091168152602001610172565b34801561041957600080fd5b50610165610862565b34801561042e57600080fd5b5061019b61043d366004611311565b610871565b34801561044e57600080fd5b506101d160095481565b34801561046457600080fd5b506101be61047336600461133b565b61087f565b34801561048457600080fd5b506101be610493366004611444565b61088c565b3480156104a457600080fd5b506101d16104b33660046114b7565b6001600160a01b03918216600090815260016020908152604080832093909416825291909152205490565b3480156104ea57600080fd5b506101be6109c6565b3480156104ff57600080fd5b506101be61050e366004611391565b610a07565b606060038054610522906114ea565b80601f016020809104026020016040519081016040528092919081815260200182805461054e906114ea565b801561059b5780601f106105705761010080835404028352916020019161059b565b820191906000526020600020905b81548152906001019060200180831161057e57829003601f168201915b5050505050905090565b6000336105b3818585610a42565b60019150505b92915050565b600081116106265760405162461bcd60e51b815260206004820152602960248201527f52656e74616c206475726174696f6e206d7573742062652067726561746572206044820152687468616e207a65726f60b81b60648201526084015b60405180910390fd5b600081600954610636919061153a565b9050803410156106805760405162461bcd60e51b8152602060048201526015602482015274125b9cdd59999a58da595b9d08115512081cd95b9d605a1b604482015260640161061d565b803411156106c057336108fc6106968334611551565b6040518115909202916000818181858888f193505050501580156106be573d6000803e3d6000fd5b505b6106f36106d56005546001600160a01b031690565b6106e16012600a61164b565b6106ee906298968061153a565b610a54565b426000610703846201518061153a565b61070d908361165a565b60408051606080820183528782526020808301878152838501868152336000818152600a85528790209551865591516001860155516002909401939093558351898152908101879052928301849052929350917f658611382a0e288ddf213e18d6e1825939c20da2d9e71ca336564709e1ad0f16910160405180910390a250505050565b60003361079f858285610a8a565b6107aa858585610b08565b506001949350505050565b60006107bf610b67565b905090565b6107ce3382610c92565b50565b6107d9610cc8565b6107e36000610cf5565b565b6107f0823383610a8a565b6107fa8282610c92565b5050565b6001600160a01b0381166000908152600860205260408120546105b9565b600060608060008060006060610830610d47565b610838610d74565b60408051600080825260208201909252600f60f81b9b939a50919850469750309650945092509050565b606060048054610522906114ea565b6000336105b3818585610b08565b610887610cc8565b600955565b834211156108b05760405163313c898160e11b81526004810185905260240161061d565b60007f6e71edae12b1b97f4d1f60370fef10105fa2faae0126114a169c64845d6126c98888886108fd8c6001600160a01b0316600090815260086020526040902080546001810190915590565b6040805160208101969096526001600160a01b0394851690860152929091166060840152608083015260a082015260c0810186905260e001604051602081830303815290604052805190602001209050600061095882610da1565b9050600061096882878787610dce565b9050896001600160a01b0316816001600160a01b0316146109af576040516325c0072360e11b81526001600160a01b0380831660048301528b16602482015260440161061d565b6109ba8a8a8a610a42565b50505050505050505050565b6109ce610cc8565b6005546040516001600160a01b03909116904780156108fc02916000818181858888f193505050501580156107ce573d6000803e3d6000fd5b610a0f610cc8565b6001600160a01b038116610a3957604051631e4fbdf760e01b81526000600482015260240161061d565b6107ce81610cf5565b610a4f8383836001610dfc565b505050565b6001600160a01b038216610a7e5760405163ec442f0560e01b81526000600482015260240161061d565b6107fa60008383610ed1565b6001600160a01b038381166000908152600160209081526040808320938616835292905220546000198114610b025781811015610af357604051637dc7a0d960e11b81526001600160a01b0384166004820152602481018290526044810183905260640161061d565b610b0284848484036000610dfc565b50505050565b6001600160a01b038316610b3257604051634b637e8f60e11b81526000600482015260240161061d565b6001600160a01b038216610b5c5760405163ec442f0560e01b81526000600482015260240161061d565b610a4f838383610ed1565b6000306001600160a01b037f000000000000000000000000000000000000000000000000000000000000000016148015610bc057507f000000000000000000000000000000000000000000000000000000000000000046145b15610bea57507f000000000000000000000000000000000000000000000000000000000000000090565b6107bf604080517f8b73c3c69bb8fe3d512ecc4cf759cc79239f7b179b0ffacaa9a75d522b39400f60208201527f0000000000000000000000000000000000000000000000000000000000000000918101919091527f000000000000000000000000000000000000000000000000000000000000000060608201524660808201523060a082015260009060c00160405160208183030381529060405280519060200120905090565b6001600160a01b038216610cbc57604051634b637e8f60e11b81526000600482015260240161061d565b6107fa82600083610ed1565b6005546001600160a01b031633146107e35760405163118cdaa760e01b815233600482015260240161061d565b600580546001600160a01b038381166001600160a01b0319831681179093556040519116919082907f8be0079c531659141344cd1fd0a4f28419497f9722a3daafe3b4186f6b6457e090600090a35050565b60606107bf7f00000000000000000000000000000000000000000000000000000000000000006006610ffb565b60606107bf7f00000000000000000000000000000000000000000000000000000000000000006007610ffb565b60006105b9610dae610b67565b8360405161190160f01b8152600281019290925260228201526042902090565b600080600080610de0888888886110a6565b925092509250610df08282611175565b50909695505050505050565b6001600160a01b038416610e265760405163e602df0560e01b81526000600482015260240161061d565b6001600160a01b038316610e5057604051634a1406b160e11b81526000600482015260240161061d565b6001600160a01b0380851660009081526001602090815260408083209387168352929052208290558015610b0257826001600160a01b0316846001600160a01b03167f8c5be1e5ebec7d5bd14f71427d1e84f3dd0314c0f7b2291e5b200ac8c7c3b92584604051610ec391815260200190565b60405180910390a350505050565b6001600160a01b038316610efc578060026000828254610ef1919061165a565b90915550610f6e9050565b6001600160a01b03831660009081526020819052604090205481811015610f4f5760405163391434e360e21b81526001600160a01b0385166004820152602481018290526044810183905260640161061d565b6001600160a01b03841660009081526020819052604090209082900390555b6001600160a01b038216610f8a57600280548290039055610fa9565b6001600160a01b03821660009081526020819052604090208054820190555b816001600160a01b0316836001600160a01b03167fddf252ad1be2c89b69c2b068fc378daa952ba7f163c4a11628f55a4df523b3ef83604051610fee91815260200190565b60405180910390a3505050565b606060ff83146110155761100e8361122e565b90506105b9565b818054611021906114ea565b80601f016020809104026020016040519081016040528092919081815260200182805461104d906114ea565b801561109a5780601f1061106f5761010080835404028352916020019161109a565b820191906000526020600020905b81548152906001019060200180831161107d57829003601f168201915b505050505090506105b9565b600080807f7fffffffffffffffffffffffffffffff5d576e7357a4501ddfe92f46681b20a08411156110e1575060009150600390508261116b565b604080516000808252602082018084528a905260ff891692820192909252606081018790526080810186905260019060a0016020604051602081039080840390855afa158015611135573d6000803e3d6000fd5b5050604051601f1901519150506001600160a01b0381166111615750600092506001915082905061116b565b9250600091508190505b9450945094915050565b60008260038111156111895761118961166d565b03611192575050565b60018260038111156111a6576111a661166d565b036111c45760405163f645eedf60e01b815260040160405180910390fd5b60028260038111156111d8576111d861166d565b036111f95760405163fce698f760e01b81526004810182905260240161061d565b600382600381111561120d5761120d61166d565b036107fa576040516335e2f38360e21b81526004810182905260240161061d565b6060600061123b8361126d565b604080516020808252818301909252919250600091906020820181803683375050509182525060208101929092525090565b600060ff8216601f8111156105b957604051632cd44ac360e21b815260040160405180910390fd5b6000815180845260005b818110156112bb5760208185018101518683018201520161129f565b506000602082860101526020601f19601f83011685010191505092915050565b6020815260006112ee6020830184611295565b9392505050565b80356001600160a01b038116811461130c57600080fd5b919050565b6000806040838503121561132457600080fd5b61132d836112f5565b946020939093013593505050565b60006020828403121561134d57600080fd5b5035919050565b60008060006060848603121561136957600080fd5b611372846112f5565b9250611380602085016112f5565b929592945050506040919091013590565b6000602082840312156113a357600080fd5b6112ee826112f5565b60ff60f81b8816815260e0602082015260006113cb60e0830189611295565b82810360408401526113dd8189611295565b606084018890526001600160a01b038716608085015260a0840186905283810360c08501528451808252602080870193509091019060005b81811015611433578351835260209384019390920191600101611415565b50909b9a5050505050505050505050565b600080600080600080600060e0888a03121561145f57600080fd5b611468886112f5565b9650611476602089016112f5565b95506040880135945060608801359350608088013560ff8116811461149a57600080fd5b9699959850939692959460a0840135945060c09093013592915050565b600080604083850312156114ca57600080fd5b6114d3836112f5565b91506114e1602084016112f5565b90509250929050565b600181811c908216806114fe57607f821691505b60208210810361151e57634e487b7160e01b600052602260045260246000fd5b50919050565b634e487b7160e01b600052601160045260246000fd5b80820281158282048414176105b9576105b9611524565b818103818111156105b9576105b9611524565b6001815b600184111561159f5780850481111561158357611583611524565b600184161561159157908102905b60019390931c928002611568565b935093915050565b6000826115b6575060016105b9565b816115c3575060006105b9565b81600181146115d957600281146115e3576115ff565b60019150506105b9565b60ff8411156115f4576115f4611524565b50506001821b6105b9565b5060208310610133831016604e8410600b8410161715611622575081810a6105b9565b61162f6000198484611564565b806000190482111561164357611643611524565b029392505050565b60006112ee60ff8416836115a7565b808201808211156105b9576105b9611524565b634e487b7160e01b600052602160045260246000fdfea2646970667358221220bb346a6f0ec05ef3feb100fdb2c23086de5206ebfaad1408a77eb5c4c8b9732064736f6c634300081a0033","linkReferences":{}},"methodIdentifiers":{"DOMAIN_SEPARATOR()":"3644e515","allowance(address,address)":"dd62ed3e","approve(address,uint256)":"095ea7b3","balanceOf(address)":"70a08231","burn(uint256)":"42966c68","burnFrom(address,uint256)":"79cc6790","decimals()":"313ce567","eip712Domain()":"84b0196e","getStatus(address)":"30ccebb5","name()":"06fdde03","nonces(address)":"7ecebe00","owner()":"8da5cb5b","permit(address,address,uint256,uint256,uint8,bytes32,bytes32)":"d505accf","renounceOwnership()":"715018a6","rentVilla(uint256)":"14f6f65d","rentals(address)":"6ba85eb4","setVillaPricePerDay(uint256)":"b61c129b","symbol()":"95d89b41","totalSupply()":"18160ddd","transfer(address,uint256)":"a9059cbb","transferFrom(address,address,uint256)":"23b872dd","transferOwnership(address)":"f2fde38b","villaPricePerDay()":"b5f74122","withdrawETH()":"e086e5ec"},"id":42}