{"abi":[{"type":"constructor","inputs":[{"name":"_paymentToken","type":"address","internalType":"address"},{"name":"_villaPricePerDay","type":"uint256","internalType":"uint256"},{"name":"initialOwner","type":"address","internalType":"address"}],"stateMutability":"nonpayable"},{"type":"function","name":"DOMAIN_SEPARATOR","inputs":[],"outputs":[{"name":"","type":"bytes32","internalType":"bytes32"}],"stateMutability":"view"},{"type":"function","name":"allowance","inputs":[{"name":"owner","type":"address","internalType":"address"},{"name":"spender","type":"address","internalType":"address"}],"outputs":[{"name":"","type":"uint256","internalType":"uint256"}],"stateMutability":"view"},{"type":"function","name":"approve","inputs":[{"name":"spender","type":"address","internalType":"address"},{"name":"value","type":"uint256","internalType":"uint256"}],"outputs":[{"name":"","type":"bool","internalType":"bool"}],"stateMutability":"nonpayable"},{"type":"function","name":"balanceOf","inputs":[{"name":"account","type":"address","internalType":"address"}],"outputs":[{"name":"","type":"uint256","internalType":"uint256"}],"stateMutability":"view"},{"type":"function","name":"burn","inputs":[{"name":"value","type":"uint256","internalType":"uint256"}],"outputs":[],"stateMutability":"nonpayable"},{"type":"function","name":"burnFrom","inputs":[{"name":"account","type":"address","internalType":"address"},{"name":"value","type":"uint256","internalType":"uint256"}],"outputs":[],"stateMutability":"nonpayable"},{"type":"function","name":"decimals","inputs":[],"outputs":[{"name":"","type":"uint8","internalType":"uint8"}],"stateMutability":"view"},{"type":"function","name":"eip712Domain","inputs":[],"outputs":[{"name":"fields","type":"bytes1","internalType":"bytes1"},{"name":"name","type":"string","internalType":"string"},{"name":"version","type":"string","internalType":"string"},{"name":"chainId","type":"uint256","internalType":"uint256"},{"name":"verifyingContract","type":"address","internalType":"address"},{"name":"salt","type":"bytes32","internalType":"bytes32"},{"name":"extensions","type":"uint256[]","internalType":"uint256[]"}],"stateMutability":"view"},{"type":"function","name":"getStatus","inputs":[{"name":"renter","type":"address","internalType":"address"}],"outputs":[{"name":"","type":"address","internalType":"address"},{"name":"","type":"uint256","internalType":"uint256"},{"name":"","type":"uint256","internalType":"uint256"},{"name":"","type":"uint256","internalType":"uint256"}],"stateMutability":"view"},{"type":"function","name":"name","inputs":[],"outputs":[{"name":"","type":"string","internalType":"string"}],"stateMutability":"view"},{"type":"function","name":"nonces","inputs":[{"name":"owner","type":"address","internalType":"address"}],"outputs":[{"name":"","type":"uint256","internalType":"uint256"}],"stateMutability":"view"},{"type":"function","name":"owner","inputs":[],"outputs":[{"name":"","type":"address","internalType":"address"}],"stateMutability":"view"},{"type":"function","name":"paymentToken","inputs":[],"outputs":[{"name":"","type":"address","internalType":"address"}],"stateMutability":"view"},{"type":"function","name":"permit","inputs":[{"name":"owner","type":"address","internalType":"address"},{"name":"spender","type":"address","internalType":"address"},{"name":"value","type":"uint256","internalType":"uint256"},{"name":"deadline","type":"uint256","internalType":"uint256"},{"name":"v","type":"uint8","internalType":"uint8"},{"name":"r","type":"bytes32","internalType":"bytes32"},{"name":"s","type":"bytes32","internalType":"bytes32"}],"outputs":[],"stateMutability":"nonpayable"},{"type":"function","name":"renounceOwnership","inputs":[],"outputs":[],"stateMutability":"nonpayable"},{"type":"function","name":"rentVilla","inputs":[{"name":"rentalDays","type":"uint256","internalType":"uint256"}],"outputs":[],"stateMutability":"nonpayable"},{"type":"function","name":"rentals","inputs":[{"name":"","type":"address","internalType":"address"}],"outputs":[{"name":"daysRented","type":"uint256","internalType":"uint256"},{"name":"startTimestamp","type":"uint256","internalType":"uint256"},{"name":"endTimestamp","type":"uint256","internalType":"uint256"}],"stateMutability":"view"},{"type":"function","name":"setVillaPricePerDay","inputs":[{"name":"_villaPricePerDay","type":"uint256","internalType":"uint256"}],"outputs":[],"stateMutability":"nonpayable"},{"type":"function","name":"symbol","inputs":[],"outputs":[{"name":"","type":"string","internalType":"string"}],"stateMutability":"view"},{"type":"function","name":"totalSupply","inputs":[],"outputs":[{"name":"","type":"uint256","internalType":"uint256"}],"stateMutability":"view"},{"type":"function","name":"transfer","inputs":[{"name":"to","type":"address","internalType":"address"},{"name":"value","type":"uint256","internalType":"uint256"}],"outputs":[{"name":"","type":"bool","internalType":"bool"}],"stateMutability":"nonpayable"},{"type":"function","name":"transferFrom","inputs":[{"name":"from","type":"address","internalType":"address"},{"name":"to","type":"address","internalType":"address"},{"name":"value","type":"uint256","internalType":"uint256"}],"outputs":[{"name":"","type":"bool","internalType":"bool"}],"stateMutability":"nonpayable"},{"type":"function","name":"transferOwnership","inputs":[{"name":"newOwner","type":"address","internalType":"address"}],"outputs":[],"stateMutability":"nonpayable"},{"type":"function","name":"villaPricePerDay","inputs":[],"outputs":[{"name":"","type":"uint256","internalType":"uint256"}],"stateMutability":"view"},{"type":"function","name":"withdrawTokens","inputs":[{"name":"tokenAddress","type":"address","internalType":"address"}],"outputs":[],"stateMutability":"nonpayable"},{"type":"event","name":"Approval","inputs":[{"name":"owner","type":"address","indexed":true,"internalType":"address"},{"name":"spender","type":"address","indexed":true,"internalType":"address"},{"name":"value","type":"uint256","indexed":false,"internalType":"uint256"}],"anonymous":false},{"type":"event","name":"EIP712DomainChanged","inputs":[],"anonymous":false},{"type":"event","name":"OwnershipTransferred","inputs":[{"name":"previousOwner","type":"address","indexed":true,"internalType":"address"},{"name":"newOwner","type":"address","indexed":true,"internalType":"address"}],"anonymous":false},{"type":"event","name":"Rented","inputs":[{"name":"renter","type":"address","indexed":true,"internalType":"address"},{"name":"rentalDays","type":"uint256","indexed":false,"internalType":"uint256"},{"name":"startTimestamp","type":"uint256","indexed":false,"internalType":"uint256"},{"name":"endTimestamp","type":"uint256","indexed":false,"internalType":"uint256"}],"anonymous":false},{"type":"event","name":"Transfer","inputs":[{"name":"from","type":"address","indexed":true,"internalType":"address"},{"name":"to","type":"address","indexed":true,"internalType":"address"},{"name":"value","type":"uint256","indexed":false,"internalType":"uint256"}],"anonymous":false},{"type":"error","name":"ECDSAInvalidSignature","inputs":[]},{"type":"error","name":"ECDSAInvalidSignatureLength","inputs":[{"name":"length","type":"uint256","internalType":"uint256"}]},{"type":"error","name":"ECDSAInvalidSignatureS","inputs":[{"name":"s","type":"bytes32","internalType":"bytes32"}]},{"type":"error","name":"ERC20InsufficientAllowance","inputs":[{"name":"spender","type":"address","internalType":"address"},{"name":"allowance","type":"uint256","internalType":"uint256"},{"name":"needed","type":"uint256","internalType":"uint256"}]},{"type":"error","name":"ERC20InsufficientBalance","inputs":[{"name":"sender","type":"address","internalType":"address"},{"name":"balance","type":"uint256","internalType":"uint256"},{"name":"needed","type":"uint256","internalType":"uint256"}]},{"type":"error","name":"ERC20InvalidApprover","inputs":[{"name":"approver","type":"address","internalType":"address"}]},{"type":"error","name":"ERC20InvalidReceiver","inputs":[{"name":"receiver","type":"address","internalType":"address"}]},{"type":"error","name":"ERC20InvalidSender","inputs":[{"name":"sender","type":"address","internalType":"address"}]},{"type":"error","name":"ERC20InvalidSpender","inputs":[{"name":"spender","type":"address","internalType":"address"}]},{"type":"error","name":"ERC2612ExpiredSignature","inputs":[{"name":"deadline","type":"uint256","internalType":"uint256"}]},{"type":"error","name":"ERC2612InvalidSigner","inputs":[{"name":"signer","type":"address","internalType":"address"},{"name":"owner","type":"address","internalType":"address"}]},{"type":"error","name":"InvalidAccountNonce","inputs":[{"name":"account","type":"address","internalType":"address"},{"name":"currentNonce","type":"uint256","internalType":"uint256"}]},{"type":"error","name":"InvalidShortString","inputs":[]},{"type":"error","name":"OwnableInvalidOwner","inputs":[{"name":"owner","type":"address","internalType":"address"}]},{"type":"error","name":"OwnableUnauthorizedAccount","inputs":[{"name":"account","type":"address","internalType":"address"}]},{"type":"error","name":"StringTooLong","inputs":[{"name":"str","type":"string","internalType":"string"}]}],"bytecode":{"object":"0x61016060405234801561001157600080fd5b506040516120bc3803806120bc8339810160408190526100309161044d565b6040518060400160405280600a8152602001692b34b63630aa37b5b2b760b11b81525080604051806040016040528060018152602001603160f81b815250836040518060400160405280600a8152602001692b34b63630aa37b5b2b760b11b8152506040518060400160405280600381526020016215931560ea1b81525081600390816100bd9190610528565b5060046100ca8282610528565b5050506001600160a01b0381166100fc57604051631e4fbdf760e01b8152600060048201526024015b60405180910390fd5b6101058161020a565b5061011182600661025c565b6101205261012081600761025c565b61014052815160208084019190912060e052815190820120610100524660a0526101ad60e05161010051604080517f8b73c3c69bb8fe3d512ecc4cf759cc79239f7b179b0ffacaa9a75d522b39400f60208201529081019290925260608201524660808201523060a082015260009060c00160405160208183030381529060405280519060200120905090565b60805250503060c05250600980546001600160a01b0319166001600160a01b038516179055600a829055610202336101e3601290565b6101ee90600a6106e3565b6101fd906402540be4006106f9565b61028f565b505050610795565b600580546001600160a01b038381166001600160a01b0319831681179093556040519116919082907f8be0079c531659141344cd1fd0a4f28419497f9722a3daafe3b4186f6b6457e090600090a35050565b600060208351101561027857610271836102c9565b9050610289565b816102838482610528565b5060ff90505b92915050565b6001600160a01b0382166102b95760405163ec442f0560e01b8152600060048201526024016100f3565b6102c560008383610307565b5050565b600080829050601f815111156102f4578260405163305a27a960e01b81526004016100f39190610710565b80516102ff8261075e565b179392505050565b6001600160a01b0383166103325780600260008282546103279190610782565b909155506103a49050565b6001600160a01b038316600090815260208190526040902054818110156103855760405163391434e360e21b81526001600160a01b038516600482015260248101829052604481018390526064016100f3565b6001600160a01b03841660009081526020819052604090209082900390555b6001600160a01b0382166103c0576002805482900390556103df565b6001600160a01b03821660009081526020819052604090208054820190555b816001600160a01b0316836001600160a01b03167fddf252ad1be2c89b69c2b068fc378daa952ba7f163c4a11628f55a4df523b3ef8360405161042491815260200190565b60405180910390a3505050565b80516001600160a01b038116811461044857600080fd5b919050565b60008060006060848603121561046257600080fd5b61046b84610431565b92506020840151915061048060408501610431565b90509250925092565b634e487b7160e01b600052604160045260246000fd5b600181811c908216806104b357607f821691505b6020821081036104d357634e487b7160e01b600052602260045260246000fd5b50919050565b601f82111561052357806000526020600020601f840160051c810160208510156105005750805b601f840160051c820191505b81811015610520576000815560010161050c565b50505b505050565b81516001600160401b0381111561054157610541610489565b6105558161054f845461049f565b846104d9565b6020601f82116001811461058957600083156105715750848201515b600019600385901b1c1916600184901b178455610520565b600084815260208120601f198516915b828110156105b95787850151825560209485019460019092019101610599565b50848210156105d75786840151600019600387901b60f8161c191681555b50505050600190811b01905550565b634e487b7160e01b600052601160045260246000fd5b6001815b60018411156106375780850481111561061b5761061b6105e6565b600184161561062957908102905b60019390931c928002610600565b935093915050565b60008261064e57506001610289565b8161065b57506000610289565b8160018114610671576002811461067b57610697565b6001915050610289565b60ff84111561068c5761068c6105e6565b50506001821b610289565b5060208310610133831016604e8410600b84101617156106ba575081810a610289565b6106c760001984846105fc565b80600019048211156106db576106db6105e6565b029392505050565b60006106f260ff84168361063f565b9392505050565b8082028115828204841417610289576102896105e6565b602081526000825180602084015260005b8181101561073e5760208186018101516040868401015201610721565b506000604082850101526040601f19601f83011684010191505092915050565b805160208083015191908110156104d35760001960209190910360031b1b16919050565b80820180821115610289576102896105e6565b60805160a05160c05160e0516101005161012051610140516118cd6107ef6000396000610f4501526000610f1801526000610e0b01526000610de301526000610d3e01526000610d6801526000610d9201526118cd6000f3fe608060405234801561001057600080fd5b50600436106101735760003560e01c806370a08231116100de57806395d89b4111610097578063b61c129b11610071578063b61c129b146103ca578063d505accf146103dd578063dd62ed3e146103f0578063f2fde38b1461042957600080fd5b806395d89b41146103a6578063a9059cbb146103ae578063b5f74122146103c157600080fd5b806370a0823114610323578063715018a61461034c57806379cc6790146103545780637ecebe001461036757806384b0196e1461037a5780638da5cb5b1461039557600080fd5b806330ccebb51161013057806330ccebb51461021e578063313ce5671461029c5780633644e515146102ab57806342966c68146102b357806349df728c146102c65780636ba85eb4146102d957600080fd5b806306fdde0314610178578063095ea7b31461019657806314f6f65d146101b957806318160ddd146101ce57806323b872dd146101e05780633013ce29146101f3575b600080fd5b61018061043c565b60405161018d91906114a5565b60405180910390f35b6101a96101a43660046114db565b6104ce565b604051901515815260200161018d565b6101cc6101c7366004611505565b6104e8565b005b6002545b60405190815260200161018d565b6101a96101ee36600461151e565b61084d565b600954610206906001600160a01b031681565b6040516001600160a01b03909116815260200161018d565b61027261022c36600461155b565b6001600160a01b0381166000908152600b602090815260409182902082516060810184528154808252600183015493820184905260029092015493018390529293909190565b604080516001600160a01b039095168552602085019390935291830152606082015260800161018d565b6040516012815260200161018d565b6101d2610871565b6101cc6102c1366004611505565b610880565b6101cc6102d436600461155b565b61088d565b6103086102e736600461155b565b600b6020526000908152604090208054600182015460029092015490919083565b6040805193845260208401929092529082015260600161018d565b6101d261033136600461155b565b6001600160a01b031660009081526020819052604090205490565b6101cc6109e1565b6101cc6103623660046114db565b6109f5565b6101d261037536600461155b565b610a0e565b610382610a2c565b60405161018d9796959493929190611576565b6005546001600160a01b0316610206565b610180610a72565b6101a96103bc3660046114db565b610a81565b6101d2600a5481565b6101cc6103d8366004611505565b610a8f565b6101cc6103eb36600461160e565b610a9c565b6101d26103fe366004611681565b6001600160a01b03918216600090815260016020908152604080832093909416825291909152205490565b6101cc61043736600461155b565b610bd6565b60606003805461044b906116b4565b80601f0160208091040260200160405190810160405280929190818152602001828054610477906116b4565b80156104c45780601f10610499576101008083540402835291602001916104c4565b820191906000526020600020905b8154815290600101906020018083116104a757829003601f168201915b5050505050905090565b6000336104dc818585610c11565b60019150505b92915050565b6000811161054f5760405162461bcd60e51b815260206004820152602960248201527f52656e74616c206475726174696f6e206d7573742062652067726561746572206044820152687468616e207a65726f60b81b60648201526084015b60405180910390fd5b60006103e86105606012600a6117eb565b61056b9060016117fa565b6105759190611811565b6009546040516370a0823160e01b815233600482015291925082916001600160a01b03909116906370a0823190602401602060405180830381865afa1580156105c2573d6000803e3d6000fd5b505050506040513d601f19601f820116820180604052508101906105e69190611833565b101561062b5760405162461bcd60e51b8152602060048201526014602482015273125b9cdd59999a58da595b9d081c185e5b595b9d60621b6044820152606401610546565b600954604051636eb1769f60e11b815233600482015230602482015282916001600160a01b03169063dd62ed3e90604401602060405180830381865afa158015610679573d6000803e3d6000fd5b505050506040513d601f19601f8201168201806040525081019061069d9190611833565b10156106df5760405162461bcd60e51b8152602060048201526011602482015270105b1b1bddd85b98d9481b9bdd081cd95d607a1b6044820152606401610546565b6009546001600160a01b03166323b872dd336107036005546001600160a01b031690565b6040516001600160e01b031960e085901b1681526001600160a01b03928316600482015291166024820152604481018490526064016020604051808303816000875af1158015610757573d6000803e3d6000fd5b505050506040513d601f19601f8201168201806040525081019061077b919061184c565b506107af6107916005546001600160a01b031690565b61079d6012600a6117eb565b6107aa90629896806117fa565b610c1e565b4260006107bf84620151806117fa565b6107c9908361186e565b60408051606080820183528782526020808301878152838501868152336000818152600b85528790209551865591516001860155516002909401939093558351898152908101879052928301849052929350917f658611382a0e288ddf213e18d6e1825939c20da2d9e71ca336564709e1ad0f16910160405180910390a250505050565b60003361085b858285610c54565b610866858585610cd2565b506001949350505050565b600061087b610d31565b905090565b61088a3382610e5c565b50565b610895610e92565b6040516370a0823160e01b81523060048201526000906001600160a01b038316906370a0823190602401602060405180830381865afa1580156108dc573d6000803e3d6000fd5b505050506040513d601f19601f820116820180604052508101906109009190611833565b90506000811161094a5760405162461bcd60e51b81526020600482015260156024820152744e6f20746f6b656e7320746f20776974686472617760581b6044820152606401610546565b816001600160a01b031663a9059cbb61096b6005546001600160a01b031690565b6040516001600160e01b031960e084901b1681526001600160a01b039091166004820152602481018490526044016020604051808303816000875af11580156109b8573d6000803e3d6000fd5b505050506040513d601f19601f820116820180604052508101906109dc919061184c565b505050565b6109e9610e92565b6109f36000610ebf565b565b610a00823383610c54565b610a0a8282610e5c565b5050565b6001600160a01b0381166000908152600860205260408120546104e2565b600060608060008060006060610a40610f11565b610a48610f3e565b60408051600080825260208201909252600f60f81b9b939a50919850469750309650945092509050565b60606004805461044b906116b4565b6000336104dc818585610cd2565b610a97610e92565b600a55565b83421115610ac05760405163313c898160e11b815260048101859052602401610546565b60007f6e71edae12b1b97f4d1f60370fef10105fa2faae0126114a169c64845d6126c9888888610b0d8c6001600160a01b0316600090815260086020526040902080546001810190915590565b6040805160208101969096526001600160a01b0394851690860152929091166060840152608083015260a082015260c0810186905260e0016040516020818303038152906040528051906020012090506000610b6882610f6b565b90506000610b7882878787610f98565b9050896001600160a01b0316816001600160a01b031614610bbf576040516325c0072360e11b81526001600160a01b0380831660048301528b166024820152604401610546565b610bca8a8a8a610c11565b50505050505050505050565b610bde610e92565b6001600160a01b038116610c0857604051631e4fbdf760e01b815260006004820152602401610546565b61088a81610ebf565b6109dc8383836001610fc6565b6001600160a01b038216610c485760405163ec442f0560e01b815260006004820152602401610546565b610a0a6000838361109b565b6001600160a01b038381166000908152600160209081526040808320938616835292905220546000198114610ccc5781811015610cbd57604051637dc7a0d960e11b81526001600160a01b03841660048201526024810182905260448101839052606401610546565b610ccc84848484036000610fc6565b50505050565b6001600160a01b038316610cfc57604051634b637e8f60e11b815260006004820152602401610546565b6001600160a01b038216610d265760405163ec442f0560e01b815260006004820152602401610546565b6109dc83838361109b565b6000306001600160a01b037f000000000000000000000000000000000000000000000000000000000000000016148015610d8a57507f000000000000000000000000000000000000000000000000000000000000000046145b15610db457507f000000000000000000000000000000000000000000000000000000000000000090565b61087b604080517f8b73c3c69bb8fe3d512ecc4cf759cc79239f7b179b0ffacaa9a75d522b39400f60208201527f0000000000000000000000000000000000000000000000000000000000000000918101919091527f000000000000000000000000000000000000000000000000000000000000000060608201524660808201523060a082015260009060c00160405160208183030381529060405280519060200120905090565b6001600160a01b038216610e8657604051634b637e8f60e11b815260006004820152602401610546565b610a0a8260008361109b565b6005546001600160a01b031633146109f35760405163118cdaa760e01b8152336004820152602401610546565b600580546001600160a01b038381166001600160a01b0319831681179093556040519116919082907f8be0079c531659141344cd1fd0a4f28419497f9722a3daafe3b4186f6b6457e090600090a35050565b606061087b7f000000000000000000000000000000000000000000000000000000000000000060066111c5565b606061087b7f000000000000000000000000000000000000000000000000000000000000000060076111c5565b60006104e2610f78610d31565b8360405161190160f01b8152600281019290925260228201526042902090565b600080600080610faa88888888611270565b925092509250610fba828261133f565b50909695505050505050565b6001600160a01b038416610ff05760405163e602df0560e01b815260006004820152602401610546565b6001600160a01b03831661101a57604051634a1406b160e11b815260006004820152602401610546565b6001600160a01b0380851660009081526001602090815260408083209387168352929052208290558015610ccc57826001600160a01b0316846001600160a01b03167f8c5be1e5ebec7d5bd14f71427d1e84f3dd0314c0f7b2291e5b200ac8c7c3b9258460405161108d91815260200190565b60405180910390a350505050565b6001600160a01b0383166110c65780600260008282546110bb919061186e565b909155506111389050565b6001600160a01b038316600090815260208190526040902054818110156111195760405163391434e360e21b81526001600160a01b03851660048201526024810182905260448101839052606401610546565b6001600160a01b03841660009081526020819052604090209082900390555b6001600160a01b03821661115457600280548290039055611173565b6001600160a01b03821660009081526020819052604090208054820190555b816001600160a01b0316836001600160a01b03167fddf252ad1be2c89b69c2b068fc378daa952ba7f163c4a11628f55a4df523b3ef836040516111b891815260200190565b60405180910390a3505050565b606060ff83146111df576111d8836113f8565b90506104e2565b8180546111eb906116b4565b80601f0160208091040260200160405190810160405280929190818152602001828054611217906116b4565b80156112645780601f1061123957610100808354040283529160200191611264565b820191906000526020600020905b81548152906001019060200180831161124757829003601f168201915b505050505090506104e2565b600080807f7fffffffffffffffffffffffffffffff5d576e7357a4501ddfe92f46681b20a08411156112ab5750600091506003905082611335565b604080516000808252602082018084528a905260ff891692820192909252606081018790526080810186905260019060a0016020604051602081039080840390855afa1580156112ff573d6000803e3d6000fd5b5050604051601f1901519150506001600160a01b03811661132b57506000925060019150829050611335565b9250600091508190505b9450945094915050565b600082600381111561135357611353611881565b0361135c575050565b600182600381111561137057611370611881565b0361138e5760405163f645eedf60e01b815260040160405180910390fd5b60028260038111156113a2576113a2611881565b036113c35760405163fce698f760e01b815260048101829052602401610546565b60038260038111156113d7576113d7611881565b03610a0a576040516335e2f38360e21b815260048101829052602401610546565b6060600061140583611437565b604080516020808252818301909252919250600091906020820181803683375050509182525060208101929092525090565b600060ff8216601f8111156104e257604051632cd44ac360e21b815260040160405180910390fd5b6000815180845260005b8181101561148557602081850181015186830182015201611469565b506000602082860101526020601f19601f83011685010191505092915050565b6020815260006114b8602083018461145f565b9392505050565b80356001600160a01b03811681146114d657600080fd5b919050565b600080604083850312156114ee57600080fd5b6114f7836114bf565b946020939093013593505050565b60006020828403121561151757600080fd5b5035919050565b60008060006060848603121561153357600080fd5b61153c846114bf565b925061154a602085016114bf565b929592945050506040919091013590565b60006020828403121561156d57600080fd5b6114b8826114bf565b60ff60f81b8816815260e06020820152600061159560e083018961145f565b82810360408401526115a7818961145f565b606084018890526001600160a01b038716608085015260a0840186905283810360c08501528451808252602080870193509091019060005b818110156115fd5783518352602093840193909201916001016115df565b50909b9a5050505050505050505050565b600080600080600080600060e0888a03121561162957600080fd5b611632886114bf565b9650611640602089016114bf565b95506040880135945060608801359350608088013560ff8116811461166457600080fd5b9699959850939692959460a0840135945060c09093013592915050565b6000806040838503121561169457600080fd5b61169d836114bf565b91506116ab602084016114bf565b90509250929050565b600181811c908216806116c857607f821691505b6020821081036116e857634e487b7160e01b600052602260045260246000fd5b50919050565b634e487b7160e01b600052601160045260246000fd5b6001815b600184111561173f57808504811115611723576117236116ee565b600184161561173157908102905b60019390931c928002611708565b935093915050565b600082611756575060016104e2565b81611763575060006104e2565b816001811461177957600281146117835761179f565b60019150506104e2565b60ff841115611794576117946116ee565b50506001821b6104e2565b5060208310610133831016604e8410600b84101617156117c2575081810a6104e2565b6117cf6000198484611704565b80600019048211156117e3576117e36116ee565b029392505050565b60006114b860ff841683611747565b80820281158282048414176104e2576104e26116ee565b60008261182e57634e487b7160e01b600052601260045260246000fd5b500490565b60006020828403121561184557600080fd5b5051919050565b60006020828403121561185e57600080fd5b815180151581146114b857600080fd5b808201808211156104e2576104e26116ee565b634e487b7160e01b600052602160045260246000fdfea2646970667358221220f160d535ef63e3c89ec001d646660b5656695b5a0118e43707314e27b6c44e9a64736f6c634300081a0033","linkReferences":{}},"methodIdentifiers":{"DOMAIN_SEPARATOR()":"3644e515","allowance(address,address)":"dd62ed3e","approve(address,uint256)":"095ea7b3","balanceOf(address)":"70a08231","burn(uint256)":"42966c68","burnFrom(address,uint256)":"79cc6790","decimals()":"313ce567","eip712Domain()":"84b0196e","getStatus(address)":"30ccebb5","name()":"06fdde03","nonces(address)":"7ecebe00","owner()":"8da5cb5b","paymentToken()":"3013ce29","permit(address,address,uint256,uint256,uint8,bytes32,bytes32)":"d505accf","renounceOwnership()":"715018a6","rentVilla(uint256)":"14f6f65d","rentals(address)":"6ba85eb4","setVillaPricePerDay(uint256)":"b61c129b","symbol()":"95d89b41","totalSupply()":"18160ddd","transfer(address,uint256)":"a9059cbb","transferFrom(address,address,uint256)":"23b872dd","transferOwnership(address)":"f2fde38b","villaPricePerDay()":"b5f74122","withdrawTokens(address)":"49df728c"},"id":19}