{"abi":[{"type":"constructor","inputs":[{"name":"_paymentToken","type":"address","internalType":"address"},{"name":"_villaPricePerDay","type":"uint256","internalType":"uint256"},{"name":"initialOwner","type":"address","internalType":"address"}],"stateMutability":"nonpayable"},{"type":"function","name":"DOMAIN_SEPARATOR","inputs":[],"outputs":[{"name":"","type":"bytes32","internalType":"bytes32"}],"stateMutability":"view"},{"type":"function","name":"allowance","inputs":[{"name":"owner","type":"address","internalType":"address"},{"name":"spender","type":"address","internalType":"address"}],"outputs":[{"name":"","type":"uint256","internalType":"uint256"}],"stateMutability":"view"},{"type":"function","name":"approve","inputs":[{"name":"spender","type":"address","internalType":"address"},{"name":"value","type":"uint256","internalType":"uint256"}],"outputs":[{"name":"","type":"bool","internalType":"bool"}],"stateMutability":"nonpayable"},{"type":"function","name":"balanceOf","inputs":[{"name":"account","type":"address","internalType":"address"}],"outputs":[{"name":"","type":"uint256","internalType":"uint256"}],"stateMutability":"view"},{"type":"function","name":"burn","inputs":[{"name":"value","type":"uint256","internalType":"uint256"}],"outputs":[],"stateMutability":"nonpayable"},{"type":"function","name":"burnFrom","inputs":[{"name":"account","type":"address","internalType":"address"},{"name":"value","type":"uint256","internalType":"uint256"}],"outputs":[],"stateMutability":"nonpayable"},{"type":"function","name":"decimals","inputs":[],"outputs":[{"name":"","type":"uint8","internalType":"uint8"}],"stateMutability":"view"},{"type":"function","name":"eip712Domain","inputs":[],"outputs":[{"name":"fields","type":"bytes1","internalType":"bytes1"},{"name":"name","type":"string","internalType":"string"},{"name":"version","type":"string","internalType":"string"},{"name":"chainId","type":"uint256","internalType":"uint256"},{"name":"verifyingContract","type":"address","internalType":"address"},{"name":"salt","type":"bytes32","internalType":"bytes32"},{"name":"extensions","type":"uint256[]","internalType":"uint256[]"}],"stateMutability":"view"},{"type":"function","name":"getStatus","inputs":[{"name":"renter","type":"address","internalType":"address"}],"outputs":[{"name":"","type":"uint256","internalType":"uint256"},{"name":"","type":"uint256","internalType":"uint256"},{"name":"","type":"uint256","internalType":"uint256"}],"stateMutability":"view"},{"type":"function","name":"name","inputs":[],"outputs":[{"name":"","type":"string","internalType":"string"}],"stateMutability":"view"},{"type":"function","name":"nonces","inputs":[{"name":"owner","type":"address","internalType":"address"}],"outputs":[{"name":"","type":"uint256","internalType":"uint256"}],"stateMutability":"view"},{"type":"function","name":"owner","inputs":[],"outputs":[{"name":"","type":"address","internalType":"address"}],"stateMutability":"view"},{"type":"function","name":"paymentToken","inputs":[],"outputs":[{"name":"","type":"address","internalType":"address"}],"stateMutability":"view"},{"type":"function","name":"permit","inputs":[{"name":"owner","type":"address","internalType":"address"},{"name":"spender","type":"address","internalType":"address"},{"name":"value","type":"uint256","internalType":"uint256"},{"name":"deadline","type":"uint256","internalType":"uint256"},{"name":"v","type":"uint8","internalType":"uint8"},{"name":"r","type":"bytes32","internalType":"bytes32"},{"name":"s","type":"bytes32","internalType":"bytes32"}],"outputs":[],"stateMutability":"nonpayable"},{"type":"function","name":"renounceOwnership","inputs":[],"outputs":[],"stateMutability":"nonpayable"},{"type":"function","name":"rentVilla","inputs":[{"name":"rentalDays","type":"uint256","internalType":"uint256"}],"outputs":[],"stateMutability":"nonpayable"},{"type":"function","name":"rentals","inputs":[{"name":"","type":"address","internalType":"address"}],"outputs":[{"name":"daysRented","type":"uint256","internalType":"uint256"},{"name":"startTimestamp","type":"uint256","internalType":"uint256"},{"name":"endTimestamp","type":"uint256","internalType":"uint256"}],"stateMutability":"view"},{"type":"function","name":"setVillaPricePerDay","inputs":[{"name":"_villaPricePerDay","type":"uint256","internalType":"uint256"}],"outputs":[],"stateMutability":"nonpayable"},{"type":"function","name":"symbol","inputs":[],"outputs":[{"name":"","type":"string","internalType":"string"}],"stateMutability":"view"},{"type":"function","name":"totalSupply","inputs":[],"outputs":[{"name":"","type":"uint256","internalType":"uint256"}],"stateMutability":"view"},{"type":"function","name":"transfer","inputs":[{"name":"to","type":"address","internalType":"address"},{"name":"value","type":"uint256","internalType":"uint256"}],"outputs":[{"name":"","type":"bool","internalType":"bool"}],"stateMutability":"nonpayable"},{"type":"function","name":"transferFrom","inputs":[{"name":"from","type":"address","internalType":"address"},{"name":"to","type":"address","internalType":"address"},{"name":"value","type":"uint256","internalType":"uint256"}],"outputs":[{"name":"","type":"bool","internalType":"bool"}],"stateMutability":"nonpayable"},{"type":"function","name":"transferOwnership","inputs":[{"name":"newOwner","type":"address","internalType":"address"}],"outputs":[],"stateMutability":"nonpayable"},{"type":"function","name":"villaPricePerDay","inputs":[],"outputs":[{"name":"","type":"uint256","internalType":"uint256"}],"stateMutability":"view"},{"type":"function","name":"withdrawTokens","inputs":[{"name":"tokenAddress","type":"address","internalType":"address"}],"outputs":[],"stateMutability":"nonpayable"},{"type":"event","name":"Approval","inputs":[{"name":"owner","type":"address","indexed":true,"internalType":"address"},{"name":"spender","type":"address","indexed":true,"internalType":"address"},{"name":"value","type":"uint256","indexed":false,"internalType":"uint256"}],"anonymous":false},{"type":"event","name":"EIP712DomainChanged","inputs":[],"anonymous":false},{"type":"event","name":"OwnershipTransferred","inputs":[{"name":"previousOwner","type":"address","indexed":true,"internalType":"address"},{"name":"newOwner","type":"address","indexed":true,"internalType":"address"}],"anonymous":false},{"type":"event","name":"Rented","inputs":[{"name":"renter","type":"address","indexed":true,"internalType":"address"},{"name":"amount","type":"uint256","indexed":false,"internalType":"uint256"},{"name":"rentalDays","type":"uint256","indexed":false,"internalType":"uint256"},{"name":"startTimestamp","type":"uint256","indexed":false,"internalType":"uint256"},{"name":"endTimestamp","type":"uint256","indexed":false,"internalType":"uint256"}],"anonymous":false},{"type":"event","name":"Transfer","inputs":[{"name":"from","type":"address","indexed":true,"internalType":"address"},{"name":"to","type":"address","indexed":true,"internalType":"address"},{"name":"value","type":"uint256","indexed":false,"internalType":"uint256"}],"anonymous":false},{"type":"error","name":"ECDSAInvalidSignature","inputs":[]},{"type":"error","name":"ECDSAInvalidSignatureLength","inputs":[{"name":"length","type":"uint256","internalType":"uint256"}]},{"type":"error","name":"ECDSAInvalidSignatureS","inputs":[{"name":"s","type":"bytes32","internalType":"bytes32"}]},{"type":"error","name":"ERC20InsufficientAllowance","inputs":[{"name":"spender","type":"address","internalType":"address"},{"name":"allowance","type":"uint256","internalType":"uint256"},{"name":"needed","type":"uint256","internalType":"uint256"}]},{"type":"error","name":"ERC20InsufficientBalance","inputs":[{"name":"sender","type":"address","internalType":"address"},{"name":"balance","type":"uint256","internalType":"uint256"},{"name":"needed","type":"uint256","internalType":"uint256"}]},{"type":"error","name":"ERC20InvalidApprover","inputs":[{"name":"approver","type":"address","internalType":"address"}]},{"type":"error","name":"ERC20InvalidReceiver","inputs":[{"name":"receiver","type":"address","internalType":"address"}]},{"type":"error","name":"ERC20InvalidSender","inputs":[{"name":"sender","type":"address","internalType":"address"}]},{"type":"error","name":"ERC20InvalidSpender","inputs":[{"name":"spender","type":"address","internalType":"address"}]},{"type":"error","name":"ERC2612ExpiredSignature","inputs":[{"name":"deadline","type":"uint256","internalType":"uint256"}]},{"type":"error","name":"ERC2612InvalidSigner","inputs":[{"name":"signer","type":"address","internalType":"address"},{"name":"owner","type":"address","internalType":"address"}]},{"type":"error","name":"InvalidAccountNonce","inputs":[{"name":"account","type":"address","internalType":"address"},{"name":"currentNonce","type":"uint256","internalType":"uint256"}]},{"type":"error","name":"InvalidShortString","inputs":[]},{"type":"error","name":"OwnableInvalidOwner","inputs":[{"name":"owner","type":"address","internalType":"address"}]},{"type":"error","name":"OwnableUnauthorizedAccount","inputs":[{"name":"account","type":"address","internalType":"address"}]},{"type":"error","name":"StringTooLong","inputs":[{"name":"str","type":"string","internalType":"string"}]}],"bytecode":{"object":"0x61016060405234801561001157600080fd5b50604051611e6e380380611e6e8339810160408190526100309161044d565b6040518060400160405280600a8152602001692b34b63630aa37b5b2b760b11b81525080604051806040016040528060018152602001603160f81b815250836040518060400160405280600a8152602001692b34b63630aa37b5b2b760b11b8152506040518060400160405280600381526020016215931560ea1b81525081600390816100bd9190610528565b5060046100ca8282610528565b5050506001600160a01b0381166100fc57604051631e4fbdf760e01b8152600060048201526024015b60405180910390fd5b6101058161020a565b5061011182600661025c565b6101205261012081600761025c565b61014052815160208084019190912060e052815190820120610100524660a0526101ad60e05161010051604080517f8b73c3c69bb8fe3d512ecc4cf759cc79239f7b179b0ffacaa9a75d522b39400f60208201529081019290925260608201524660808201523060a082015260009060c00160405160208183030381529060405280519060200120905090565b60805250503060c05250600980546001600160a01b0319166001600160a01b038516179055600a829055610202336101e3601290565b6101ee90600a6106e3565b6101fd906402540be4006106f9565b61028f565b505050610795565b600580546001600160a01b038381166001600160a01b0319831681179093556040519116919082907f8be0079c531659141344cd1fd0a4f28419497f9722a3daafe3b4186f6b6457e090600090a35050565b600060208351101561027857610271836102c9565b9050610289565b816102838482610528565b5060ff90505b92915050565b6001600160a01b0382166102b95760405163ec442f0560e01b8152600060048201526024016100f3565b6102c560008383610307565b5050565b600080829050601f815111156102f4578260405163305a27a960e01b81526004016100f39190610710565b80516102ff8261075e565b179392505050565b6001600160a01b0383166103325780600260008282546103279190610782565b909155506103a49050565b6001600160a01b038316600090815260208190526040902054818110156103855760405163391434e360e21b81526001600160a01b038516600482015260248101829052604481018390526064016100f3565b6001600160a01b03841660009081526020819052604090209082900390555b6001600160a01b0382166103c0576002805482900390556103df565b6001600160a01b03821660009081526020819052604090208054820190555b816001600160a01b0316836001600160a01b03167fddf252ad1be2c89b69c2b068fc378daa952ba7f163c4a11628f55a4df523b3ef8360405161042491815260200190565b60405180910390a3505050565b80516001600160a01b038116811461044857600080fd5b919050565b60008060006060848603121561046257600080fd5b61046b84610431565b92506020840151915061048060408501610431565b90509250925092565b634e487b7160e01b600052604160045260246000fd5b600181811c908216806104b357607f821691505b6020821081036104d357634e487b7160e01b600052602260045260246000fd5b50919050565b601f82111561052357806000526020600020601f840160051c810160208510156105005750805b601f840160051c820191505b81811015610520576000815560010161050c565b50505b505050565b81516001600160401b0381111561054157610541610489565b6105558161054f845461049f565b846104d9565b6020601f82116001811461058957600083156105715750848201515b600019600385901b1c1916600184901b178455610520565b600084815260208120601f198516915b828110156105b95787850151825560209485019460019092019101610599565b50848210156105d75786840151600019600387901b60f8161c191681555b50505050600190811b01905550565b634e487b7160e01b600052601160045260246000fd5b6001815b60018411156106375780850481111561061b5761061b6105e6565b600184161561062957908102905b60019390931c928002610600565b935093915050565b60008261064e57506001610289565b8161065b57506000610289565b8160018114610671576002811461067b57610697565b6001915050610289565b60ff84111561068c5761068c6105e6565b50506001821b610289565b5060208310610133831016604e8410600b84101617156106ba575081810a610289565b6106c760001984846105fc565b80600019048211156106db576106db6105e6565b029392505050565b60006106f260ff84168361063f565b9392505050565b8082028115828204841417610289576102896105e6565b602081526000825180602084015260005b8181101561073e5760208186018101516040868401015201610721565b506000604082850101526040601f19601f83011684010191505092915050565b805160208083015191908110156104d35760001960209190910360031b1b16919050565b80820180821115610289576102896105e6565b60805160a05160c05160e05161010051610120516101405161167f6107ef6000396000610e0f01526000610de201526000610cd501526000610cad01526000610c0801526000610c3201526000610c5c015261167f6000f3fe608060405234801561001057600080fd5b50600436106101735760003560e01c806370a08231116100de57806395d89b4111610097578063b61c129b11610071578063b61c129b1461039e578063d505accf146103b1578063dd62ed3e146103c4578063f2fde38b146103fd57600080fd5b806395d89b411461037a578063a9059cbb14610382578063b5f741221461039557600080fd5b806370a08231146102f7578063715018a61461032057806379cc6790146103285780637ecebe001461033b57806384b0196e1461034e5780638da5cb5b1461036957600080fd5b806330ccebb51161013057806330ccebb51461021e578063313ce5671461028b5780633644e5151461029a57806342966c68146102a257806349df728c146102b55780636ba85eb4146102c857600080fd5b806306fdde0314610178578063095ea7b31461019657806314f6f65d146101b957806318160ddd146101ce57806323b872dd146101e05780633013ce29146101f3575b600080fd5b610180610410565b60405161018d919061136f565b60405180910390f35b6101a96101a43660046113a5565b6104a2565b604051901515815260200161018d565b6101cc6101c73660046113cf565b6104bc565b005b6002545b60405190815260200161018d565b6101a96101ee3660046113e8565b610717565b600954610206906001600160a01b031681565b6040516001600160a01b03909116815260200161018d565b61027061022c366004611425565b6001600160a01b03166000908152600b6020908152604091829020825160608101845281548082526001830154938201849052600290920154930183905292909190565b6040805193845260208401929092529082015260600161018d565b6040516012815260200161018d565b6101d261073b565b6101cc6102b03660046113cf565b61074a565b6101cc6102c3366004611425565b610757565b6102706102d6366004611425565b600b6020526000908152604090208054600182015460029092015490919083565b6101d2610305366004611425565b6001600160a01b031660009081526020819052604090205490565b6101cc6108ab565b6101cc6103363660046113a5565b6108bf565b6101d2610349366004611425565b6108d8565b6103566108f6565b60405161018d9796959493929190611440565b6005546001600160a01b0316610206565b61018061093c565b6101a96103903660046113a5565b61094b565b6101d2600a5481565b6101cc6103ac3660046113cf565b610959565b6101cc6103bf3660046114d8565b610966565b6101d26103d236600461154b565b6001600160a01b03918216600090815260016020908152604080832093909416825291909152205490565b6101cc61040b366004611425565b610aa0565b60606003805461041f9061157e565b80601f016020809104026020016040519081016040528092919081815260200182805461044b9061157e565b80156104985780601f1061046d57610100808354040283529160200191610498565b820191906000526020600020905b81548152906001019060200180831161047b57829003601f168201915b5050505050905090565b6000336104b0818585610adb565b60019150505b92915050565b600081116105235760405162461bcd60e51b815260206004820152602960248201527f52656e74616c206475726174696f6e206d7573742062652067726561746572206044820152687468616e207a65726f60b81b60648201526084015b60405180910390fd5b600081600a5461053391906115ce565b6009546040516370a0823160e01b815233600482015291925082916001600160a01b03909116906370a0823190602401602060405180830381865afa158015610580573d6000803e3d6000fd5b505050506040513d601f19601f820116820180604052508101906105a491906115e5565b10156105e95760405162461bcd60e51b8152602060048201526014602482015273125b9cdd59999a58da595b9d081c185e5b595b9d60621b604482015260640161051a565b6009546040516323b872dd60e01b8152336004820152306024820152604481018390526001600160a01b03909116906323b872dd906064016020604051808303816000875af1158015610640573d6000803e3d6000fd5b505050506040513d601f19601f8201168201806040525081019061066491906115fe565b5042600061067584620151806115ce565b61067f9083611620565b604080516060810182528681526020808201868152828401858152336000818152600b9094529490922092518355516001830155516002909101559091506106c79084610ae8565b60408051848152602081018690529081018390526060810182905233907fc2c22f9b3a46ab612255639fae5260867af4e23fc911dffb2211899ab7610f7b9060800160405180910390a250505050565b600033610725858285610b1e565b610730858585610b9c565b506001949350505050565b6000610745610bfb565b905090565b6107543382610d26565b50565b61075f610d5c565b6040516370a0823160e01b81523060048201526000906001600160a01b038316906370a0823190602401602060405180830381865afa1580156107a6573d6000803e3d6000fd5b505050506040513d601f19601f820116820180604052508101906107ca91906115e5565b9050600081116108145760405162461bcd60e51b81526020600482015260156024820152744e6f20746f6b656e7320746f20776974686472617760581b604482015260640161051a565b816001600160a01b031663a9059cbb6108356005546001600160a01b031690565b6040516001600160e01b031960e084901b1681526001600160a01b039091166004820152602481018490526044016020604051808303816000875af1158015610882573d6000803e3d6000fd5b505050506040513d601f19601f820116820180604052508101906108a691906115fe565b505050565b6108b3610d5c565b6108bd6000610d89565b565b6108ca823383610b1e565b6108d48282610d26565b5050565b6001600160a01b0381166000908152600860205260408120546104b6565b60006060806000806000606061090a610ddb565b610912610e08565b60408051600080825260208201909252600f60f81b9b939a50919850469750309650945092509050565b60606004805461041f9061157e565b6000336104b0818585610b9c565b610961610d5c565b600a55565b8342111561098a5760405163313c898160e11b81526004810185905260240161051a565b60007f6e71edae12b1b97f4d1f60370fef10105fa2faae0126114a169c64845d6126c98888886109d78c6001600160a01b0316600090815260086020526040902080546001810190915590565b6040805160208101969096526001600160a01b0394851690860152929091166060840152608083015260a082015260c0810186905260e0016040516020818303038152906040528051906020012090506000610a3282610e35565b90506000610a4282878787610e62565b9050896001600160a01b0316816001600160a01b031614610a89576040516325c0072360e11b81526001600160a01b0380831660048301528b16602482015260440161051a565b610a948a8a8a610adb565b50505050505050505050565b610aa8610d5c565b6001600160a01b038116610ad257604051631e4fbdf760e01b81526000600482015260240161051a565b61075481610d89565b6108a68383836001610e90565b6001600160a01b038216610b125760405163ec442f0560e01b81526000600482015260240161051a565b6108d460008383610f65565b6001600160a01b038381166000908152600160209081526040808320938616835292905220546000198114610b965781811015610b8757604051637dc7a0d960e11b81526001600160a01b0384166004820152602481018290526044810183905260640161051a565b610b9684848484036000610e90565b50505050565b6001600160a01b038316610bc657604051634b637e8f60e11b81526000600482015260240161051a565b6001600160a01b038216610bf05760405163ec442f0560e01b81526000600482015260240161051a565b6108a6838383610f65565b6000306001600160a01b037f000000000000000000000000000000000000000000000000000000000000000016148015610c5457507f000000000000000000000000000000000000000000000000000000000000000046145b15610c7e57507f000000000000000000000000000000000000000000000000000000000000000090565b610745604080517f8b73c3c69bb8fe3d512ecc4cf759cc79239f7b179b0ffacaa9a75d522b39400f60208201527f0000000000000000000000000000000000000000000000000000000000000000918101919091527f000000000000000000000000000000000000000000000000000000000000000060608201524660808201523060a082015260009060c00160405160208183030381529060405280519060200120905090565b6001600160a01b038216610d5057604051634b637e8f60e11b81526000600482015260240161051a565b6108d482600083610f65565b6005546001600160a01b031633146108bd5760405163118cdaa760e01b815233600482015260240161051a565b600580546001600160a01b038381166001600160a01b0319831681179093556040519116919082907f8be0079c531659141344cd1fd0a4f28419497f9722a3daafe3b4186f6b6457e090600090a35050565b60606107457f0000000000000000000000000000000000000000000000000000000000000000600661108f565b60606107457f0000000000000000000000000000000000000000000000000000000000000000600761108f565b60006104b6610e42610bfb565b8360405161190160f01b8152600281019290925260228201526042902090565b600080600080610e748888888861113a565b925092509250610e848282611209565b50909695505050505050565b6001600160a01b038416610eba5760405163e602df0560e01b81526000600482015260240161051a565b6001600160a01b038316610ee457604051634a1406b160e11b81526000600482015260240161051a565b6001600160a01b0380851660009081526001602090815260408083209387168352929052208290558015610b9657826001600160a01b0316846001600160a01b03167f8c5be1e5ebec7d5bd14f71427d1e84f3dd0314c0f7b2291e5b200ac8c7c3b92584604051610f5791815260200190565b60405180910390a350505050565b6001600160a01b038316610f90578060026000828254610f859190611620565b909155506110029050565b6001600160a01b03831660009081526020819052604090205481811015610fe35760405163391434e360e21b81526001600160a01b0385166004820152602481018290526044810183905260640161051a565b6001600160a01b03841660009081526020819052604090209082900390555b6001600160a01b03821661101e5760028054829003905561103d565b6001600160a01b03821660009081526020819052604090208054820190555b816001600160a01b0316836001600160a01b03167fddf252ad1be2c89b69c2b068fc378daa952ba7f163c4a11628f55a4df523b3ef8360405161108291815260200190565b60405180910390a3505050565b606060ff83146110a9576110a2836112c2565b90506104b6565b8180546110b59061157e565b80601f01602080910402602001604051908101604052809291908181526020018280546110e19061157e565b801561112e5780601f106111035761010080835404028352916020019161112e565b820191906000526020600020905b81548152906001019060200180831161111157829003601f168201915b505050505090506104b6565b600080807f7fffffffffffffffffffffffffffffff5d576e7357a4501ddfe92f46681b20a084111561117557506000915060039050826111ff565b604080516000808252602082018084528a905260ff891692820192909252606081018790526080810186905260019060a0016020604051602081039080840390855afa1580156111c9573d6000803e3d6000fd5b5050604051601f1901519150506001600160a01b0381166111f5575060009250600191508290506111ff565b9250600091508190505b9450945094915050565b600082600381111561121d5761121d611633565b03611226575050565b600182600381111561123a5761123a611633565b036112585760405163f645eedf60e01b815260040160405180910390fd5b600282600381111561126c5761126c611633565b0361128d5760405163fce698f760e01b81526004810182905260240161051a565b60038260038111156112a1576112a1611633565b036108d4576040516335e2f38360e21b81526004810182905260240161051a565b606060006112cf83611301565b604080516020808252818301909252919250600091906020820181803683375050509182525060208101929092525090565b600060ff8216601f8111156104b657604051632cd44ac360e21b815260040160405180910390fd5b6000815180845260005b8181101561134f57602081850181015186830182015201611333565b506000602082860101526020601f19601f83011685010191505092915050565b6020815260006113826020830184611329565b9392505050565b80356001600160a01b03811681146113a057600080fd5b919050565b600080604083850312156113b857600080fd5b6113c183611389565b946020939093013593505050565b6000602082840312156113e157600080fd5b5035919050565b6000806000606084860312156113fd57600080fd5b61140684611389565b925061141460208501611389565b929592945050506040919091013590565b60006020828403121561143757600080fd5b61138282611389565b60ff60f81b8816815260e06020820152600061145f60e0830189611329565b82810360408401526114718189611329565b606084018890526001600160a01b038716608085015260a0840186905283810360c08501528451808252602080870193509091019060005b818110156114c75783518352602093840193909201916001016114a9565b50909b9a5050505050505050505050565b600080600080600080600060e0888a0312156114f357600080fd5b6114fc88611389565b965061150a60208901611389565b95506040880135945060608801359350608088013560ff8116811461152e57600080fd5b9699959850939692959460a0840135945060c09093013592915050565b6000806040838503121561155e57600080fd5b61156783611389565b915061157560208401611389565b90509250929050565b600181811c9082168061159257607f821691505b6020821081036115b257634e487b7160e01b600052602260045260246000fd5b50919050565b634e487b7160e01b600052601160045260246000fd5b80820281158282048414176104b6576104b66115b8565b6000602082840312156115f757600080fd5b5051919050565b60006020828403121561161057600080fd5b8151801515811461138257600080fd5b808201808211156104b6576104b66115b8565b634e487b7160e01b600052602160045260246000fdfea264697066735822122065f14c6ffe6a96030ab6236e54a0126b950492cec9a1081644d88d6df5ac261b64736f6c634300081a0033","linkReferences":{}},"methodIdentifiers":{"DOMAIN_SEPARATOR()":"3644e515","allowance(address,address)":"dd62ed3e","approve(address,uint256)":"095ea7b3","balanceOf(address)":"70a08231","burn(uint256)":"42966c68","burnFrom(address,uint256)":"79cc6790","decimals()":"313ce567","eip712Domain()":"84b0196e","getStatus(address)":"30ccebb5","name()":"06fdde03","nonces(address)":"7ecebe00","owner()":"8da5cb5b","paymentToken()":"3013ce29","permit(address,address,uint256,uint256,uint8,bytes32,bytes32)":"d505accf","renounceOwnership()":"715018a6","rentVilla(uint256)":"14f6f65d","rentals(address)":"6ba85eb4","setVillaPricePerDay(uint256)":"b61c129b","symbol()":"95d89b41","totalSupply()":"18160ddd","transfer(address,uint256)":"a9059cbb","transferFrom(address,address,uint256)":"23b872dd","transferOwnership(address)":"f2fde38b","villaPricePerDay()":"b5f74122","withdrawTokens(address)":"49df728c"},"id":42}